S01200004C616234625F66756C6C2E737265635B
S113000071C000008EC000008CC00000A0C10000C0
S11300106EC2000086C0000084C0000082C00000E0
S113002080C000007EC000007CC000007AC00000D8
S113003078C0000076C0000074C0000072C00000E8
S113004070C000006EC000006CC000006AC00000F8
S113005068C0000066C0000064C0000062C0000008
S113006060C000005EC000005CC000005AC0000018
S113007058C0000054C1000054C0000052C0000029
S113008050C000004EC000004CC000004AC0000038
S113009048C0000046C0000044C0000042C0000048
S11300A040C000003EC000003CC000003AC0000058
S11300B038C0000036C0000034C0000032C0000068
S11300C030C000002EC000002CC000002AC0000078
S11300D028C0000026C0000024C0000022C0000088
S11300E020C0000011241FBECFEFD1E2DEBFCDBF80
S11300F000E00CBF12E0A0E0B2E0E8ECF5E000E0C4
S11301000BBF02C007900D92AE31B107D9F722E0C0
S1130110AEE1B2E001C01D92A432B207E1F748D1CA
S113012051C26ECF87B1807F87B9459A469882E0E5
S11301308A95F1F700C0479A92E09A95F1F700C0CA
S113014086B18295807F92E09A95F1F700C0479836
S113015095E09A95F1F70000479A92E09A95F1F7A5
S113016000C096B192E09A95F1F700C0479895E0E7
S11301709A95F1F700008823F4F2459887B18F60CF
S113018087B90895282F22952F708F70611102C0AE
S1130190469801C0469A92E09A95F1F700C0479AB2
S11301A098B1907F922B98B995E09A95F1F7000059
S11301B0479895E09A95F1F70000479A98B1907F97
S11301C0892B88B985E08A95F1F70000479895E076
S11301D09A95F1F70000A6CF0895CF93C82F2FEF7B
S11301E086E791E0215080409040E1F700C0000094
S11301F087B18F6087B93F9A3E9A3D9A88B1807FD4
S113020088B947984598469800C000C00000479AAE
S1130210419A25E02A95F1F70000479885E08A95F0
S1130220F1F700007FDF60E08C2F8C60ABDF60E0D3
S113023088E2A8DFCF910895CF93DF93EC01888102
S1130240882331F0219661E09DDF89918111FBCFF4
S1130250DF91CF910895EF92FF920F931F93CF9365
S1130260DF9300D01F921F92CDB7DEB77B01FE0152
S1130270319625E0DF011D922A95E9F7009751F0A8
S113028035962AE030E0B90176D18293862F972FF4
S11302900097C9F7BFEFEB16FB0669F4898181115A
S11302A01DC0FE01329600E010E00F5F1F4F8191E8
S11302B08823D9F30FC005E010E00E191F090AC006
S11302C0F80181918F0161E0805D5CDF0E151F05EF
S11302D0B9F711C0053011051CF00DC000E010E0A5
S11302E081E090E08C0F9D1F080F191F7E0196E09E
S11302F0E90EF11CE5CF0F900F900F900F900F9027
S1130300DF91CF911F910F91FF90EF900895883264
S113031028F46111806460E0806834CF08951F92EE
S11303200F920FB60F9211248F939F9380917900AF
S11303308093200281E090E0909322028093210236
S11303409F918F910F900FBE0F901F9018951F9241
S11303500F920FB60F9211248F9385B18F6085B9D8
S113036081E080931E028F910F900FBE0F901F901B
S11303701895AC01E1E8F0E090819860908388EEF4
S113038093E09093890080938800109285001092E6
S1130390840020E030E005C0B19BFECFB19A2F5F0E
S11303A03F4F241735071CF4B19BF6CFF7CF0895C0
S11303B0E1E6F0E010E8108381E080838FEF809322
S11303C00A0184B987B9E1E8F0E080818260808322
S11303D0F894EA9AE9E6F0E0808180628083808183
S11303E08F7E8083EB9A80818068808380818064A3
S11303F08083CAE7D0E088818068888388818860A8
S11304008883ECE7F0E080818066808383E0E5DE2A
S113041060E081E0B7DE789488818064888384B565
S1130420836884BD85B5836085BD17BD8DE085B9BE
S11304300F2EF0E0AF2EF2E0BF2EF02D0F2EF8E0DD
S1130440CF2EF2E0DF2EF02DD4E6EE24EA94F12C48
S11304500AE710E080911E02882351F085B18F6075
S113046085B960E081E08EDE80E192E0E5DEFFCFD9
S1130470C09120028091210290912202892B51F394
S11304808091200287BD60E081E07CDE80911F02C4
S1130490882319F08C2D9D2D02C08A2D9B2DCCDE36
S11304A061E080E034DF87E192E0C6DE61E086E06F
S11304B02EDFDC9FC0011124B7015DD0CB0163E0C6
S11304C070E0C9DE61E08AE022DF8091200263E00F
S11304D070E090E0C0DE84E690E04BDF10922202F0
S11304E010922102F801808180648083B3CF1F922F
S11304F00F920FB60F9211240BB60F922F933F93C6
S11305004F935F936F937F938F939F93AF93BF9317
S1130510EF93FF934B9B1CC089E190E02ADF9091FD
S11305201F0281E0892780931F0295B18AE0892701
S11305308093230285B18F6085B985E090E019DF4F
S11305408091230285B94B99FECF89E190E011DFB8
S1130550FF91EF91BF91AF919F918F917F916F9197
S11305605F914F913F912F910F900BBE0F900FBE53
S11305700F901F90189597FB072E16F4009406D041
S113058077FD08D00BD007FC05D03EF490958195FB
S11305909F4F0895709561957F4F0895AA1BBB1BCB
S11305A051E107C0AA1FBB1FA617B70710F0A61B6F
S11305B0B70B881F991F5A95A9F780959095BC0190
S10B05C0CD010895F894FFCF6A
S11305C8464F5257415244005245564552534500EE
S11105D84B494C4C45440050574D3A202500E9
S9030000FC
