:1000000071C000008EC000008CC000008AC00000DB
:1000100088C0000086C0000084C0000082C00000CC
:1000200080C000007EC000007CC000007AC00000DC
:1000300078C0000076C0000074C0000072C00000EC
:1000400070C000006EC000006CC000006AC00000FC
:1000500068C0000066C0000064C0000062C000000C
:1000600060C000005EC000005CC000005AC000001C
:1000700058C0000056C0000054C0000052C000002C
:1000800050C000004EC000004CC000004AC000003C
:1000900048C0000046C0000044C0000042C000004C
:1000A00040C000003EC000003CC000003AC000005C
:1000B00038C0000036C0000034C0000032C000006C
:1000C00030C000002EC000002CC000002AC000007C
:1000D00028C0000026C0000024C0000022C000008C
:1000E00020C0000011241FBECFEFD1E2DEBFCDBF84
:1000F00000E00CBF12E0A0E0B2E0E6E4F5E000E0D2
:100100000BBF02C007900D92A630B107D9F722E0CD
:10011000A6E0B2E001C01D92AA30B207E1F75BD0C1
:1001200010C26ECFCF93DF93EC0184E090E0E8D073
:1001300099838883FC0113821282DF91CF91089505
:10014000DB01ED91FC91309761F0DA018D919C918A
:100150001197938382838D919C91FB01918380837E
:100160000895DA012D913C911197FC013183208390
:100170008D919C91DB018D939C9308950F931F9318
:10018000CF93DF93EC018B0188819981009751F027
:10019000FC0122813381398328834AD18881998166
:1001A0000097B1F7F80111821082DF91CF911F9172
:1001B0000F910895DC01ED91FC91309749F080E0BA
:1001C00090E001960280F381E02D3097D1F70895F9
:1001D00080E090E00895CF93DF9300D000D0CDB7BA
:1001E000DEB78FEF87B91E821D821A8219821C82A8
:1001F0001B82CE01059696DFED81FE8183E0808330
:10020000ED81FE8184E08183AE014B5F5F4FBE01D3
:100210006D5F7F4FCE01019693DFE981FA81808186
:1002200088B9EB81FC81818188B9CE0105967ADF9E
:10023000ED81FE8185E08083ED81FE8186E0818312
:10024000AE014B5F5F4FBE016D5F7F4FCE010196E8
:1002500077DFE981FA81808188B9EB81FC81818136
:1002600088B9CE0105965EDFED81FE8187E080834F
:10027000ED81FE8188E08183AE014B5F5F4FBE015F
:100280006D5F7F4FCE0101965BDFE981FA8180814E
:1002900088B9EB81FC81818188B918B8E981FA813C
:1002A000808188B918B8BE016D5F7F4FCE0101967D
:1002B00081DF88B981E029813A81232B09F080E030
:1002C00088B9BE016D5F7F4FCE01019657DFBE0139
:1002D0006D5F7F4FCE0101966DDF88B981E0298186
:1002E0003A81232B09F080E088B980E090E02696DF
:1002F0000FB6F894DEBF0FBECDBFDF91CF9108954A
:100300000F931F93CF93DF938230910510F482E017
:1003100090E0E0910802F091090220E030E0A0E0D6
:10032000B0E0309719F14081518102811381481763
:100330005907C8F08417950769F4109731F01296A1
:100340000C93129713961C9327C0009308021093E6
:10035000090222C02115310519F04217530718F47C
:100360009A01BD01EF01DF01F801DBCF2115310555
:10037000F9F0281B390B2430310580F48A819B81E8
:100380006115710521F0FB019383828304C0909372
:10039000090280930802FE01329644C0FE01E20F7A
:1003A000F31F8193919322503109398328833AC0F6
:1003B0002091060230910702232B41F42091020282
:1003C000309103023093070220930602209100022D
:1003D000309101022115310541F42DB73EB740910E
:1003E000040250910502241B350BE0910602F091A6
:1003F0000702E217F307A0F42E1B3F0B281739075B
:1004000078F0AC014E5F5F4F2417350748F04E0F70
:100410005F1F50930702409306028193919302C09D
:10042000E0E0F0E0CF01DF91CF911F910F910895AF
:10043000CF93DF93009709F481C0FC0132971382B8
:100440001282A0910802B0910902109781F42081D4
:100450003181820F931F20910602309107022817E5
:10046000390751F5F0930702E093060267C0ED01EA
:1004700020E030E0CE17DF0740F44A815B819E0127
:1004800041155105F1F0EA01F5CFD383C2834081D4
:100490005181840F951FC817D90759F48881998114
:1004A000840F951F0296918380838A819B81938319
:1004B00082832115310529F4F0930902E0930802A3
:1004C0003DC0E901FB83EA8349915991C40FD51FCF
:1004D000EC17FD0761F480819181840F951F0296CE
:1004E000E90199838883828193819B838A83E0E0F9
:1004F000F0E012968D919C911397009719F0FD01F1
:10050000DC01F7CF8D919C9111979D012E5F3F4F9C
:10051000820F931F20910602309107022817390796
:1005200069F4309729F4109209021092080202C06F
:1005300013821282B0930702A0930602DF91CF913B
:060540000895F894FFCFBE
:0605460000000A02200083
:00000001FF
