:1000000071C0000075C4000084C4000093C40000E7
:10001000A0C4000086C0000084C0000082C00000B0
:1000200080C000007EC000007CC000007AC00000DC
:1000300078C0000076C0000074C0000072C00000EC
:1000400070C000006EC000006CC000006AC00000FC
:1000500068C0000066C0000064C0000062C000000C
:1000600060C000005EC000005CC000005AC000001C
:1000700058C000000EC4000054C0000052C0000070
:1000800050C000004EC000004CC000004AC000003C
:1000900048C0000046C0000044C0000042C000004C
:1000A00040C000003EC000003CC000003AC000005C
:1000B00038C0000036C0000034C0000032C000006C
:1000C00030C000002EC000002CC000002AC000007C
:1000D00028C0000026C0000024C0000022C000008C
:1000E00020C0000011241FBECFEFD1E2DEBFCDBF84
:1000F00000E00CBF12E0A0E0B2E0ECECFCE000E0BD
:100100000BBF02C007900D92A235B107D9F722E0CC
:10011000A2E5B2E001C01D92AC36B207E1F74DD2C4
:10012000D3C55BC487B1807F87B9459A469882E082
:100130008A95F1F700C0479A92E09A95F1F700C0CE
:1001400086B18295807F92E09A95F1F700C047983A
:1001500095E09A95F1F70000479A92E09A95F1F7A9
:1001600000C096B192E09A95F1F700C0479895E0EB
:100170009A95F1F700008823F4F2459887B18F60D3
:1001800087B90895282F22952F708F70611102C0B2
:10019000469801C0469A92E09A95F1F700C0479AB6
:1001A00098B1907F922B98B995E09A95F1F700005D
:1001B000479895E09A95F1F70000479A98B1907F9B
:1001C000892B88B985E08A95F1F70000479895E07A
:1001D0009A95F1F70000A6CF0895CF93C82F2FEF7F
:1001E00086E791E0215080409040E1F700C0000098
:1001F00087B18F6087B93F9A3E9A3D9A88B1807FD8
:1002000088B947984598469800C000C00000479AB2
:10021000419A25E02A95F1F70000479885E08A95F4
:10022000F1F700007FDF60E08C2F8C60ABDF60E0D7
:1002300088E2A8DFCF910895CF93DF93EC01888106
:10024000882331F0219661E09DDF89918111FBCFF8
:10025000DF91CF910895EF92FF920F931F93CF9369
:10026000DF9300D01F921F92CDB7DEB77B01FE0156
:10027000319625E0DF011D922A95E9F7009751F0AC
:1002800035962AE030E0B901D7D38293862F972F95
:100290000097C9F7BFEFEB16FB0669F4898181115E
:1002A0001DC0FE01329600E010E00F5F1F4F8191EC
:1002B0008823D9F30FC005E010E00E191F090AC00A
:1002C000F80181918F0161E0805D5CDF0E151F05F3
:1002D000B9F711C0053011051CF00DC000E010E0A9
:1002E00081E090E08C0F9D1F080F191F7E0196E0A2
:1002F000E90EF11CE5CF0F900F900F900F900F902B
:10030000DF91CF911F910F91FF90EF900895883268
:1003100028F46111806460E0806834CF0895FC01A6
:1003200011821082FB01118210820895CF93DF9316
:10033000EC0184E090E0A7D399838883FC011382C9
:100340001282DF91CF910895DB01ED91FC913097FE
:1003500061F0DA018D919C911197938382838D9145
:100360009C91FB01918380830895DA012D913C914A
:100370001197FC01318320838D919C91DB018D933A
:100380009C930895FC0180819181DA018D939C9367
:10039000A081B181109741F012968D919C91139795
:1003A00091838083892B19F4FB01118210820895B7
:1003B000AC01E1E8F0E090819860908388EE93E0F2
:1003C0009093890080938800109285001092840099
:1003D00020E030E005C0B19BFECFB19A2F5F3F4FC8
:1003E000241735071CF4B19BF6CFF7CF0895CF93B0
:1003F000DF938091090188231CF5C9E0D1E0809149
:1004000008029091090201969093090280930802D4
:100410008091080290910902049724F01092090239
:1004200010920802E0910802F0910902E25BFD4F90
:10043000808182B984E190E0BBDF88818823FCF26F
:10044000DF91CF910895CF92DF92EF92FF920F93B9
:100450001F93CF93DF9384E190E090930702809302
:100460000602C0E0D0E003E010E00F2EFAE0CF2E4D
:10047000F02DD12C0F2EF4E1EF2EF12CF02D8091E8
:100480000802909109020197909309028093080253
:100490008091080290910902992324F41093090293
:1004A00000930802E0910802F0910902E25BFD4F1F
:1004B000808182B9CA30D10574F49E012F5F3F4F0D
:1004C000C90199230CF40196959587959701281BEE
:1004D000390BC90102C08C2D9D2DC832D10514F0F5
:1004E000CE014E97909307028093060261DF21961A
:1004F000C233D10521F6DF91CF911F910F91FF906B
:10050000EF90DF90CF900895EF92FF920F931F939B
:10051000CF93DF9384E190E09093070280930602EB
:10052000C0E0D0E00F2EFAE0EF2EF02DF12C04E128
:1005300010E08091080290910902019690930902BF
:10054000809308028091080290910902049724F098
:100550001092090210920802E0910802F09109023B
:10056000E25BFD4F808182B9CA30D10574F49E01EF
:100570002F5F3F4FC90199230CF4019695958795FC
:100580009801281B390BC90102C08E2D9F2DCA3539
:10059000D1051CF0CE0180559109909307028093FC
:1005A000060206DF2196C436D10519F6DF91CF91F8
:1005B0001F910F91FF90EF900895CF92DF92EF92ED
:1005C000FF920F931F93CF93DF93E1E6F0E080E873
:1005D000808381E08083E1E8F0E080818260808335
:1005E000F8948FEF81B99FE894B987B980EF8AB901
:1005F00010920A0183E0F1DD60E081E0C3DDE89A5A
:10060000E9E6F0E080818260808380818160808380
:10061000E99A80818860808380818B7F8083EA9AD9
:1006200080818062808380818F7E8083EB9A80814D
:1006300080688083808180648083EAE7F0E0808145
:1006400080688083808188608083ECE7F0E080812F
:1006500080648083789484B5836884BD85B5836025
:1006600085BD80E487BDC3DE6DE572E082E692E081
:1006700056DE109261028DE085B9109260020F2E55
:10068000FDE0CF2EF02D00E014E0CAE7D0E0689442
:10069000DD24D1F80F2EF3E0EF2EF02D80916002D3
:1006A000823009F481C08A3009F4DAC08130B1F7B0
:1006B00010935A0200935902109253021092520260
:1006C0002AC08091550290915602892B21F488818D
:1006D0008064888320C020915B0230915C0280910D
:1006E000590290915A022817390740F480915B0211
:1006F00090915C0290935A02809359021092560294
:10070000109255028091520290915302019690935B
:100710005302809352024899D4CF80915202909113
:100720005302181619060CF03CC0809159029091A2
:100730005A02833A934080F48091590290915A0270
:100740008D3B924058F48091590290915A028D321B
:10075000914030F4FE2C06C0F12C04C0FD2C02C0E8
:10076000FF24F39484E692E0E1DDE0916402F091ED
:100770006502F08244E652E06DE572E082E692E0C6
:10078000E3DD61E080E0C3DD8AE092E055DD61E019
:100790008BE0BDDD809152029091530265E070E0E4
:1007A0005ADD109260027ACF1092600285B18F609C
:1007B00085B989E190E0FCDD46E652E06DE572E046
:1007C00082E692E0DFDD8091660290916702FC0193
:1007D000F080F1D1F11007C060E08AE098DD85E19A
:1007E00092E02ADD1DC0F2E0FF1207C060E08AE05F
:1007F0008EDD8BE192E020DD13C021E0F21207C014
:1008000060E08AE084DD81E292E016DD09C083E0E9
:10081000F81206C060E08AE07ADD87E292E00CDD43
:10082000809161028F0D837080936102813031F07D
:10083000A8F0823029F0833029F006C004DE0EC013
:1008400063DE0CC061DE0AC085B18F6085B960E0EF
:1008500081E098DC8CE292E0EFDCFFCFC5B81ECFE0
:100860001092600285B18F6085B960E081E08ADC1A
:100870008BE392E0E1DC88EB9BE09ADD80E090E0A6
:10088000DF91CF911F910F91FF90EF90DF90CF906C
:1008900008951F920F920FB60F9211242F933F933A
:1008A0008F939F938091780090E090935C02809367
:1008B0005B029091790020915B0230915C02892F5C
:1008C00090E0982F8827820F931F90935C0280936B
:1008D0005B0281E090E090935602809355029F91D5
:1008E0008F913F912F910F900FBE0F901F901895F1
:1008F0001F920F920FB60F9211248F93489B03C043
:1009000081E0809360028F910F900FBE0F901F9037
:1009100018951F920F920FB60F9211248F93499939
:1009200003C082E0809360028F910F900FBE0F9002
:100930001F9018951F920F920FB60F92112485B138
:100940008F6085B960E081E01DDC8FE392E074DCAC
:10095000FFCF1F920F920FB60F9211240BB60F927A
:100960002F933F934F935F936F937F938F939F93B7
:10097000AF93BF93EF93FF934B9B1CC089E190E033
:1009800017DD9091540281E089278093540295B13C
:100990008AE0892780935F0285B18F6085B985E001
:1009A00090E006DD80915F0285B94B99FECF89E129
:1009B00090E0FEDCFF91EF91BF91AF919F918F91FD
:1009C0007F916F915F914F913F912F910F900BBE4F
:1009D0000F900FBE0F901F9018951F920F920FB699
:1009E0000F9211240BB60F922F933F934F935F9367
:1009F0006F937F938F939F93AF93BF93EF93FF93E7
:100A000060E081E0BFDB86E492E016DC88EB9BE0EF
:100A1000CFDCFF91EF91BF91AF919F918F917F912B
:100A20006F915F914F913F912F910F900BBE0F905F
:100A30000FBE0F901F90189597FB072E16F4009489
:100A400006D077FD08D00BD007FC05D03EF490957A
:100A500081959F4F0895709561957F4F0895AA1BCA
:100A6000BB1B51E107C0AA1FBB1FA617B70710F099
:100A7000A61BB70B881F991F5A95A9F780959095CB
:100A8000BC01CD0108950F931F93CF93DF93823064
:100A9000910510F482E090E0E0916A02F0916B021F
:100AA00020E030E0A0E0B0E0309719F140815181C2
:100AB0000281138148175907C8F08417950769F414
:100AC000109731F012960C93129713961C9327C02F
:100AD00000936A0210936B0222C02115310519F0B0
:100AE0004217530718F49A01BD01EF01DF01F80125
:100AF000DBCF21153105F9F0281B390B24303105E6
:100B000080F48A819B816115710521F0FB0193833B
:100B1000828304C090936B0280936A02FE01329636
:100B200044C0FE01E20FF31F8193919322503109DB
:100B3000398328833AC02091680230916902232BBF
:100B400041F4209102023091030230936902209314
:100B5000680220910002309101022115310541F413
:100B60002DB73EB74091040250910502241B350B6E
:100B7000E0916802F0916902E217F307A0F42E1BDE
:100B80003F0B2817390778F0AC014E5F5F4F2417F1
:100B9000350748F04E0F5F1F50936902409368027B
:100BA0008193919302C0E0E0F0E0CF01DF91CF911B
:100BB0001F910F910895CF93DF93009709F481C09F
:100BC000FC01329713821282A0916A02B0916B02EB
:100BD000109781F420813181820F931F2091680248
:100BE000309169022817390751F5F0936902E093B3
:100BF000680267C0ED0120E030E0CE17DF0740F467
:100C00004A815B819E0141155105F1F0EA01F5CF62
:100C1000D383C28340815181840F951FC817D907A0
:100C200059F488819981840F951F0296918380835E
:100C30008A819B81938382832115310529F4F09366
:100C40006B02E0936A023DC0E901FB83EA834991AC
:100C50005991C40FD51FEC17FD0761F48081918174
:100C6000840F951F0296E90199838883828193817D
:100C70009B838A83E0E0F0E012968D919C9113971C
:100C8000009719F0FD01DC01F7CF8D919C91119730
:100C90009D012E5F3F4F820F931F2091680230917C
:100CA00069022817390769F4309729F410926B020A
:100CB00010926A0202C013821282B0936902A0935A
:0C0CC0006802DF91CF910895F894FFCFF7
:100CCC0000006C0220001400300056616C20436F51
:100CDC00756E743A00424C41434B00574849544599
:100CEC0000535445454C00414C554D004B494C4C20
:100CFC004544207374657070657200454E44004B1A
:100D0C00494C4C4544004953522042414400300662
:020D1C002805A8
:00000001FF
