S01800004C616235576F726B696E67436F7079312E737265631B
S113000071C00000BBC50000CAC50000D9C500000E
S113001030C6000086C0000084C0000082C000001A
S113002080C000007EC000007CC000007AC00000D8
S113003078C0000076C0000074C0000072C00000E8
S113004070C000006EC000006CC000006AC00000F8
S113005068C0000066C0000064C0000062C0000008
S113006060C000005EC000005CC000005AC0000018
S113007058C0000054C5000054C0000052C0000025
S1130080E0C500004EC000004CC000004AC00000A3
S113009048C0000046C0000044C0000042C0000048
S11300A040C000003EC000003CC000003AC0000058
S11300B038C0000036C0000034C0000032C0000068
S11300C030C000002EC000002CC000002AC0000078
S11300D028C0000026C0000024C0000022C0000088
S11300E020C0000011241FBECFEFD1E2DEBFCDBF80
S11300F000E00CBF12E0A0E0B2E0E6EDFFE000E0BB
S11301000BBF02C007900D92AA33B107D9F722E0C2
S1130110AAE3B2E001C01D92AB35B207E1F7D0D239
S113012058C7E0C587B1807F87B9459A469882E071
S11301308A95F1F700C0479A92E09A95F1F700C0CA
S113014086B18295807F92E09A95F1F700C0479836
S113015095E09A95F1F70000479A92E09A95F1F7A5
S113016000C096B192E09A95F1F700C0479895E0E7
S11301709A95F1F700008823F4F2459887B18F60CF
S113018087B90895282F22952F708F70611102C0AE
S1130190469801C0469A92E09A95F1F700C0479AB2
S11301A098B1907F922B98B995E09A95F1F7000059
S11301B0479895E09A95F1F70000479A98B1907F97
S11301C0892B88B985E08A95F1F70000479895E076
S11301D09A95F1F70000A6CF0895CF93C82F2FEF7B
S11301E086E791E0215080409040E1F700C0000094
S11301F087B18F6087B93F9A3E9A3D9A88B1807FD4
S113020088B947984598469800C000C00000479AAE
S1130210419A25E02A95F1F70000479885E08A95F0
S1130220F1F700007FDF60E08C2F8C60ABDF60E0D3
S113023088E2A8DFCF910895CF93DF93EC01888102
S1130240882331F0219661E09DDF89918111FBCFF4
S1130250DF91CF910895EF92FF920F931F93CF9365
S1130260DF9300D01F921F92CDB7DEB77B01FE0152
S1130270319625E0DF011D922A95E9F7009751F0A8
S113028035962AE030E0B9015CD58293862F972F0A
S11302900097C9F7BFEFEB16FB0669F4898181115A
S11302A01DC0FE01329600E010E00F5F1F4F8191E8
S11302B08823D9F30FC005E010E00E191F090AC006
S11302C0F80181918F0161E0805D5CDF0E151F05EF
S11302D0B9F711C0053011051CF00DC000E010E0A5
S11302E081E090E08C0F9D1F080F191F7E0196E09E
S11302F0E90EF11CE5CF0F900F900F900F900F9027
S1130300DF91CF911F910F91FF90EF900895883264
S113031028F46111806460E0806834CF0895FC01A2
S113032011821082FB01118210820895CF93DF9312
S1130330EC0184E090E02CD599838883FC0113823E
S11303401282DF91CF910895DB01ED91FC913097FA
S113035061F0DA018D919C911197938382838D9141
S11303609C91FB01918380830895DA012D913C9146
S11303701197FC01318320838D919C91DB018D9336
S11303809C930895FC0180819181DA018D939C9363
S1130390A081B181109741F012968D919C91139791
S11303A091838083892B19F4FB01118210820895B3
S11303B0AC01E1E8F0E090819860908388EE93E0EE
S11303C09093890080938800109285001092840095
S11303D020E030E005C0B19BFECFB19A2F5F3F4FC4
S11303E0241735071CF4B19BF6CFF7CF0895CF93AC
S11303F0DF93C9E1D0E0809108029091090201964F
S11304009093090280930802809108029091090256
S1130410049724F01092090210920802E091080255
S1130420F0910902EB5CFD4F808182B98FE090E08E
S1130430BFDF219701F78091090188231CF5C9E0EA
S1130440D1E08091080290910902019690930902EB
S1130450809308028091080290910902049724F085
S11304601092090210920802E0910802F091090228
S1130470EB5CFD4F808182B984E190E099DF888153
S11304808823FCF2DF91CF910895EF92FF920F93AE
S11304901F93CF93DF9384E190E0909307028093BE
S11304A00602C0E0D0E00F2EFAE0EF2EF02DF12C82
S11304B004E110E080910802909109020196909362
S11304C0090280930802809108029091090204971E
S11304D024F01092090210920802E0910802F091AF
S11304E00902EB5CFD4F808182B9CA30D10574F4F6
S11304F09E012F5F3F4FC90199230CF401969595F6
S113050087959801281B390BC90102C08E2D9F2D98
S1130510C832D10514F0CE014E9790930702809310
S1130520060246DF2196C233D10521F6DF91CF9131
S11305301F910F91FF90EF900895CF92DF92EF9269
S1130540FF920F931F93CF93DF9384E190E09093F6
S1130550070280930602C0E0D0E003E010E00F2E13
S1130560FAE0CF2EF02DD12C0F2EF4E1EF2EF12C4A
S1130570F02D80910802909109020197909309024D
S1130580809308028091080290910902992324F42F
S11305901093090200930802E0910802F091090205
S11305A0EB5CFD4F808182B9CA30D10574F49E01A1
S11305B02F5F3F4FC90199230CF4019695958795B8
S11305C09701281B390BC90102C08C2D9D2DC832FF
S11305D0D10514F0CE014E97909307028093060242
S11305E0E7DE2196C233D10521F6DF91CF911F9129
S11305F00F91FF90EF90DF90CF900895CF92DF920C
S1130600EF92FF920F931F93CF93DF9384E190E0D7
S11306109093070280930602C0E0D0E003E010E06C
S11306200F2EFAE0CF2EF02DD12C0F2EF4E1EF2E69
S1130630F12CF02D8091080290910902019790937A
S1130640090280930802809108029091090299237B
S113065024F41093090200930802E0910802F09137
S11306600902EB5CFD4F808182B9CA30D10574F474
S11306709E012F5F3F4FC90199230CF40196959574
S113068087959701281B390BC90102C08C2D9D2D1C
S1130690CA35D1051CF0CE0180559109909307020B
S11306A08093060285DE2196C436D10519F6DF91C2
S11306B0CF911F910F91FF90EF90DF90CF9008950D
S11306C08F929F92AF92BF92CF92DF92EF92FF925E
S11306D00F931F93CF93DF93E1E6F0E080E88083EC
S11306E081E08083E1E8F0E0808182608083F89497
S11306F08FEF81B99FE894B987B980EF8AB91092D6
S11307000A0183E06ADD60E081E03CDDE89AE9E625
S1130710F0E0808182608083808181608083E99AB7
S113072080818860808380818B7F8083EA9A808146
S11307308062808380818F7E8083EB9A8081806851
S11307408083808180648083EAE7F0E08081806830
S11307508083808188608083ECE7F0E0808180641E
S11307608083789484B5836884BD85B5836085BDB2
S113077080E687BD3CDE6CE472E081E592E0CFDD8B
S1130780109250028DE085B910924F020F2EFFE0B7
S1130790AF2EF02DCAE3D2E00F2EFDE0BF2EF02DD8
S11307A0E12C6894FF24F2F80F2EFAE7CF2ED12C17
S11307B0F02D6894992491F804E010E080914F02A0
S11307C0823009F4DAC020F4813009F464C0F6CF31
S11307D0833021F0843009F444C1F0CFA5B860E03F
S11307E081E0D0DC8BE092E027DD60E080E08FDD0B
S11307F08BE092E021DD60E087E089DD8CE192E02E
S11308001BDD60E089E083DD888162E070E090E0D8
S113081022DD60E08CE07BDD82E192E00DDD60E0D2
S11308208EE075DD898162E070E090E014DD61E0C6
S113083087E06DDD85E192E0FFDC61E089E067DD62
S11308408A8162E070E090E006DD61E08CE05FDDCB
S113085088E192E0F1DC61E08EE059DD8B8162E0B9
S113086070E090E0F8DC61E080E051DD8BE192E043
S1130870E3DC61E083E04BDD8C8162E070E090E0DA
S1130880EADC80910A02813019F4B5B860E07ADCC0
S113089010924F0293CFF0924902E09248021092D4
S11308A04302109242022BC080914402909145026F
S11308B0892B29F4F60180818064808320C02091F3
S11308C04A0230914B0280914802909149022817C4
S11308D0390740F480914A0290914B029093490267
S11308E08093480210924502109244028091420281
S11308F09091430201969093430280934202489957
S1130900D3CF80914202909143021816190694F5B0
S11309108091480290914902833A934098F48091DF
S11309204802909149028D3B924070F480914802B4
S1130930909149028D32914048F40F2EF3E08F2EAE
S1130940F02D06C0812C04C0892C02C08824839415
S113095083E592E0EBDCE0915302F0915402808253
S113096043E552E06CE472E081E592E0EDDC8C81D9
S11309708F5F8C8310924F0221CF10924F0285B16A
S11309808F6085B989E190E013DD45E552E06CE4C0
S113099072E081E592E0F6DC809155029091560276
S11309A0FC0180808DD2811007C08C8181508C83A2
S11309B088818F5F88831DC0F2E08F1207C08C810D
S11309C081508C838A818F5F8A8313C021E08212D5
S11309D007C08C8181508C8389818F5F898309C092
S11309E083E0881206C08C8181508C838B818F5F59
S11309F08B8320915002821649F1E82DF0E030E01B
S1130A00C901019683709078992324F401978C6F1F
S1130A109F6F0196E817F90721F48FDD8092500249
S1130A2015C0C9010296B8018CD1E817F90721F461
S1130A30E5DD809250020AC0C9010396B80181D154
S1130A40E817F90719F421DD80925002B5B88091B6
S1130A50400290914102019709F0B0CE8C8181113E
S1130A60ADCE84EF91E0A4DC85B18F6085B960E000
S1130A7081E088DB60E080E04ADC8FE192E0DCDB4F
S1130A8061E080E044DC86E292E0D6DB60E087E06F
S1130A903EDC8CE192E0D0DB60E089E038DCCAE344
S1130AA0D2E0888162E070E090E0D5DB60E08CE029
S1130AB02EDC82E192E0C0DB60E08EE028DC8981FC
S1130AC062E070E090E0C7DB61E087E020DC85E174
S1130AD092E0B2DB61E089E01ADC8A8162E070E0D6
S1130AE090E0B9DB61E08CE012DC88E192E0A4DB09
S1130AF061E08EE00CDC8B8162E070E090E0ABDBC7
S1130B0080E090E0DF91CF911F910F91FF90EF90E3
S1130B10DF90CF90BF90AF909F908F9008951F92D9
S1130B200F920FB60F9211242F933F938F939F939D
S1130B308091780090E090934B0280934A029091C8
S1130B40790020914A0230914B02892F90E0982F2E
S1130B508827820F931F90934B0280934A0281E06F
S1130B6090E090934502809344029F918F913F912E
S1130B702F910F900FBE0F901F9018951F920F92F8
S1130B800FB60F9211248F93489B03C081E080938A
S1130B904F028F910F900FBE0F901F9018951F92C8
S1130BA00F920FB60F9211248F93499903C082E0DC
S1130BB080934F028F910F900FBE0F901F90189546
S1130BC01F920F920FB60F9211240BB60F928F93B0
S1130BD09F93AF93BF93EF93FF9380913F02811153
S1130BE023C0109241021092400281E080933F02A0
S1130BF0E1E9F0E0108210929000108210929500CA
S1130C00109294008FE995E1909399008093980055
S1130C10C19AA1E7B0E08C9182608C938081886056
S1130C208083808185608083FF91EF91BF91AF9134
S1130C309F918F910F900BBE0F900FBE0F901F903E
S1130C4018951F920F920FB60F9211248F939F93B2
S1130C501092910010923F0281E090E09093410243
S1130C60809340029F918F910F900FBE0F901F9021
S1130C7018951F920F920FB60F9211240BB60F9274
S1130C802F933F934F935F936F937F938F939F9390
S1130C90AF93BF93EF93FF934B9B11C089E190E017
S1130CA087DB90910A0281E0892780930A0283E01E
S1130CB080934F024B99FECF89E190E079DBFF915D
S1130CC0EF91BF91AF919F918F917F916F915F91C0
S1130CD04F913F912F910F900BBE0F900FBE0F902D
S1130CE01F9018951F920F920FB60F9211240BB6F6
S1130CF00F922F933F934F935F936F937F938F93B1
S1130D009F93AF93BF93EF93FF9360E081E03ADA50
S1130D108DE292E091DA88EB9BE04ADBFF91EF9160
S1130D20BF91AF919F918F917F916F915F914F91FF
S1130D303F912F910F900BBE0F900FBE0F901F90FD
S1130D40189597FB072E16F4009406D077FD08D06B
S1130D500BD007FC05D03EF4909581959F4F0895E4
S1130D60709561957F4F0895AA1BBB1B51E107C085
S1130D70AA1FBB1FA617B70710F0A61BB70B881F27
S1130D80991F5A95A9F780959095BC01CD010895B6
S1130D900F931F93CF93DF938230910510F482E079
S1130DA090E0E0915902F0915A0220E030E0A0E096
S1130DB0B0E0309719F140815181028113814817C5
S1130DC05907C8F08417950769F4109731F0129603
S1130DD00C93129713961C9327C0009359021093F7
S1130DE05A0222C02115310519F04217530718F48D
S1130DF09A01BD01EF01DF01F801DBCF21153105B7
S1130E00F9F0281B390B2430310580F48A819B8149
S1130E106115710521F0FB019383828304C09093D3
S1130E205A0280935902FE01329644C0FE01E20F39
S1130E30F31F8193919322503109398328833AC057
S1130E402091570230915802232B41F42091020241
S1130E5030910302309358022093570220910002EC
S1130E60309101022115310541F42DB73EB740916F
S1130E70040250910502241B350BE0915702F091B6
S1130E805802E217F307A0F42E1B3F0B281739076B
S1130E9078F0AC014E5F5F4F2417350748F04E0FD2
S1130EA05F1F50935802409357028193919302C05D
S1130EB0E0E0F0E0CF01DF91CF911F910F91089511
S1130EC0CF93DF93009709F481C0FC01329713821A
S1130ED01282A0915902B0915A02109781F4208194
S1130EE03181820F931F20915702309158022817A5
S1130EF0390751F5F0935802E093570267C0ED01AA
S1130F0020E030E0CE17DF0740F44A815B819E0188
S1130F1041155105F1F0EA01F5CFD383C283408135
S1130F205181840F951FC817D90759F48881998175
S1130F30840F951F0296918380838A819B8193837A
S1130F4082832115310529F4F0935A02E093590262
S1130F503DC0E901FB83EA8349915991C40FD51F30
S1130F60EC17FD0761F480819181840F951F02962F
S1130F70E90199838883828193819B838A83E0E05A
S1130F80F0E012968D919C911397009719F0FD0152
S1130F90DC01F7CF8D919C9111979D012E5F3F4FFE
S1130FA0820F931F20915702309158022817390756
S1130FB069F4309729F410925A021092590202C02F
S1130FC013821282B0935802A0935702DF91CF91FB
S1090FD00895F894FFCF20
S1130FD600005B0220000A003000015041555345D1
S1130FE64400533A00573A00413A0042423A00520A
S1130FF6616D70656400446F776E3A2900495352F7
S10D10062042414400362E2D35002F
S9030000FC
