S01800004C616235576F726B696E67436F7079312E737265631B
S113000071C000006EC300007DC300008CC30000FB
S113001099C3000086C0000084C0000082C00000B4
S113002080C000007EC000007CC000007AC00000D8
S113003078C0000076C0000074C0000072C00000E8
S113004070C000006EC000006CC000006AC00000F8
S113005068C0000066C0000064C0000062C0000008
S113006060C000005EC000005CC000005AC0000018
S113007058C0000007C3000054C0000052C0000074
S113008050C000004EC000004CC000004AC0000038
S113009048C0000046C0000044C0000042C0000048
S11300A040C000003EC000003CC000003AC0000058
S11300B038C0000036C0000034C0000032C0000068
S11300C030C000002EC000002CC000002AC0000078
S11300D028C0000026C0000024C0000022C0000088
S11300E020C0000011241FBECFEFD1E2DEBFCDBF80
S11300F000E00CBF12E0A0E0B2E0EEEBFAE000E0BA
S11301000BBF02C007900D92AC33B107D9F722E0C0
S1130110ACE3B2E001C01D92A535B207E1F767D1A7
S1130120CCC454C387B1807F87B9459A469882E08E
S11301308A95F1F700C0479A92E09A95F1F700C0CA
S113014086B18295807F92E09A95F1F700C0479836
S113015095E09A95F1F70000479A92E09A95F1F7A5
S113016000C096B192E09A95F1F700C0479895E0E7
S11301709A95F1F700008823F4F2459887B18F60CF
S113018087B90895282F22952F708F70611102C0AE
S1130190469801C0469A92E09A95F1F700C0479AB2
S11301A098B1907F922B98B995E09A95F1F7000059
S11301B0479895E09A95F1F70000479A98B1907F97
S11301C0892B88B985E08A95F1F70000479895E076
S11301D09A95F1F70000A6CF0895CF93C82F2FEF7B
S11301E086E791E0215080409040E1F700C0000094
S11301F087B18F6087B93F9A3E9A3D9A88B1807FD4
S113020088B947984598469800C000C00000479AAE
S1130210419A25E02A95F1F70000479885E08A95F0
S1130220F1F700007FDF60E08C2F8C60ABDF60E0D3
S113023088E2A8DFCF910895CF93DF93EC01888102
S1130240882331F0219661E09DDF89918111FBCFF4
S1130250DF91CF910895EF92FF920F931F93CF9365
S1130260DF9300D01F921F92CDB7DEB77B01FE0152
S1130270319625E0DF011D922A95E9F7009751F0A8
S113028035962AE030E0B901D0D28293862F972F99
S11302900097C9F7BFEFEB16FB0669F4898181115A
S11302A01DC0FE01329600E010E00F5F1F4F8191E8
S11302B08823D9F30FC005E010E00E191F090AC006
S11302C0F80181918F0161E0805D5CDF0E151F05EF
S11302D0B9F711C0053011051CF00DC000E010E0A5
S11302E081E090E08C0F9D1F080F191F7E0196E09E
S11302F0E90EF11CE5CF0F900F900F900F900F9027
S1130300DF91CF911F910F91FF90EF900895883264
S113031028F46111806460E0806834CF0895FC01A2
S113032011821082FB01118210820895CF93DF9312
S1130330EC0184E090E0A0D299838883FC011382CD
S11303401282DF91CF910895DB01ED91FC913097FA
S113035061F0DA018D919C911197938382838D9141
S11303609C91FB01918380830895DA012D913C9146
S11303701197FC01318320838D919C91DB018D9336
S11303809C930895FC0180819181DA018D939C9363
S1130390A081B181109741F012968D919C91139791
S11303A091838083892B19F4FB01118210820895B3
S11303B0AC01E1E8F0E090819860908388EE93E0EE
S11303C09093890080938800109285001092840095
S11303D020E030E005C0B19BFECFB19A2F5F3F4FC4
S11303E0241735071CF4B19BF6CFF7CF0895BF92BD
S11303F0CF92DF92EF92FF920F931F93CF93DF93ED
S1130400E1E6F0E080E8808381E08083E1E8F0E0E9
S1130410808182608083F8948FEF81B99FE894B9DA
S113042087B980EF8AB910920A0183E0D6DE60E0D2
S113043081E0A8DEE89AE9E6F0E0808182608083CA
S1130440808181608083E99A808188608083808153
S11304508B7F8083EA9A80818062808380818F7E13
S11304608083EB9A8081806880838081806480832C
S1130470EAE7F0E0808180688083808188608083FF
S1130480ECE7F0E0808180648083789484B58368AD
S113049084BD85B5836085BD80E487BD67E472E073
S11304A08BE492E03CDF8DE085B910924A020F2E76
S11304B0FDE0FF2EF02D00E014E0CAE7D0E06894E0
S11304C0EE24E1F80F2EF3E0CF2EF02D6894DD2416
S11304D0D2F880914A02823009F481C08A3009F44A
S11304E0B7C08130B1F710934402009343021092D5
S11304F03D0210923C022AC080913F02909140023A
S1130500892B21F488818064888320C0209145024E
S11305103091460280914302909144022817390792
S113052040F4809145029091460290934402809356
S113053043021092400210923F0280913C0290913B
S11305403D02019690933D0280933C024899D4CF9A
S113055080913C0290913D02181619060CF03CC0A3
S11305608091430290914402833A934080F48091B5
S11305704302909144028D3B924060F48091430287
S1130580909144028D32914038F4BD2C06C0BB24B6
S1130590B39403C0BE2C01C0BC2C8DE492E0C6DE33
S11305A0E0914D02F0914E02B0824DE452E067E4D6
S11305B072E08BE492E0C8DE61E080E0A8DE86E0D1
S11305C092E03ADE61E08BE0A2DE80913C02909101
S11305D03D0265E070E03FDE10924A027ACF10924D
S11305E04A0285B18F6085B989E190E0E1DE4FE48C
S11305F052E067E472E08BE492E0C4DEE0914F02E3
S1130600F09150028081813039F460E08AE07FDE2D
S113061081E192E011DE1AC0823039F460E08AE0B0
S113062076DE87E192E008DE11C0833039F460E0C1
S11306308AE06DDE8DE192E0FFDD08C0843031F4A4
S113064060E08AE064DE83E292E0F6DDF5B841CF53
S113065010924A0285B18F6085B960E081E092DD35
S113066088E292E0E9DD88EB9BE0A2DE80E090E0A6
S1130670DF91CF911F910F91FF90EF90DF90CF907A
S1130680BF9008951F920F920FB60F9211242F93CB
S11306903F938F939F938091780090E090934602CC
S11306A08093450290917900209145023091460251
S11306B0892F90E0982F8827820F931F90934602EA
S11306C08093450281E090E09093400280933F0242
S11306D09F918F913F912F910F900FBE0F901F907C
S11306E018951F920F920FB60F9211248F93489B67
S11306F003C081E080934A028F910F900FBE0F9048
S11307001F9018951F920F920FB60F9211248F937A
S1130710499903C082E080934A028F910F900FBEE3
S11307200F901F9018951F920F920FB60F921124DD
S113073085B18F6085B960E081E024DD8CE292E0D0
S11307407BDDFFCF1F920F920FB60F9211240BB6D1
S11307500F922F933F934F935F936F937F938F9356
S11307609F93AF93BF93EF93FF934B9B1CC089E17F
S113077090E01EDE90913E0281E0892780933E0244
S113078095B18AE089278093490285B18F6085B944
S113079085E090E00DDE8091490285B94B99FECF4A
S11307A089E190E005DEFF91EF91BF91AF919F91B8
S11307B08F917F916F915F914F913F912F910F9006
S11307C00BBE0F900FBE0F901F9018951F920F92A3
S11307D00FB60F9211240BB60F922F933F934F93A2
S11307E05F936F937F938F939F93AF93BF93EF9395
S11307F0FF9360E081E0C6DC83E392E01DDD88EBDB
S11308009BE0D6DDFF91EF91BF91AF919F918F91C6
S11308107F916F915F914F913F912F910F900BBEFC
S11308200F900FBE0F901F90189597FB072E16F48C
S1130830009406D077FD08D00BD007FC05D03EF419
S1130840909581959F4F0895709561957F4F089578
S1130850AA1BBB1B51E107C0AA1FBB1FA617B707E2
S113086010F0A61BB70B881F991F5A95A9F78095FE
S11308709095BC01CD0108950F931F93CF93DF93FF
S11308808230910510F482E090E0E0915302F091FF
S1130890540220E030E0A0E0B0E0309719F140814C
S11308A051810281138148175907C8F084179507AD
S11308B069F4109731F012960C93129713961C93C7
S11308C027C0009353021093540222C0211531050E
S11308D019F04217530718F49A01BD01EF01DF0123
S11308E0F801DBCF21153105F9F0281B390B243031
S11308F0310580F48A819B816115710521F0FB012A
S11309009383828304C09093540280935302FE0124
S1130910329644C0FE01E20FF31F8193919322505B
S11309203109398328833AC020915102309152020F
S1130930232B41F42091020230910302309352029E
S113094020935102209100023091010221153105BA
S113095041F42DB73EB74091040250910502241B87
S1130960350BE0915102F0915202E217F307A0F423
S11309702E1B3F0B2817390778F0AC014E5F5F4FF1
S11309802417350748F04E0F5F1F509352024093CF
S113099051028193919302C0E0E0F0E0CF01DF9136
S11309A0CF911F910F910895CF93DF93009709F48E
S11309B081C0FC01329713821282A0915302B0913C
S11309C05402109781F420813181820F931F20916A
S11309D05102309152022817390751F5F09352020F
S11309E0E093510267C0ED0120E030E0CE17DF074D
S11309F040F44A815B819E0141155105F1F0EA0101
S1130A00F5CFD383C28340815181840F951FC817CA
S1130A10D90759F488819981840F951F029691838F
S1130A2080838A819B81938382832115310529F4F4
S1130A30F0935402E09353023DC0E901FB83EA833F
S1130A4049915991C40FD51FEC17FD0761F48081BA
S1130A509181840F951F0296E9019983888382818D
S1130A6093819B838A83E0E0F0E012968D919C91C0
S1130A701397009719F0FD01DC01F7CF8D919C913C
S1130A8011979D012E5F3F4F820F931F20915102BA
S1130A90309152022817390769F4309729F41092DB
S1130AA054021092530202C013821282B093520273
S1110AB0A0935102DF91CF910895F894FFCFE7
S1130ABE00005502200056616C20436F756E743A27
S1130ACE00424C41434B005748495445005354454A
S1130ADE454C00414C554D00454E44004B494C4C41
S10F0AEE4544004953522042414400009A
S9030000FC
