S01800004C616235576F726B696E67436F7079312E737265631B
S113000071C000009AC50000A9C50000B8C5000071
S1130010C5C5000086C0000084C0000082C0000086
S113002080C000007EC000007CC000007AC00000D8
S113003078C0000076C0000074C0000072C00000E8
S113004070C000006EC000006CC000006AC00000F8
S113005068C0000066C0000064C0000062C0000008
S113006060C000005EC000005CC000005AC0000018
S113007058C0000033C5000054C0000052C0000046
S113008050C000004EC000004CC000004AC0000038
S113009048C0000046C0000044C0000042C0000048
S11300A040C000003EC000003CC000003AC0000058
S11300B038C0000036C0000034C0000032C0000068
S11300C030C000002EC000002CC000002AC0000078
S11300D028C0000026C0000024C0000022C0000088
S11300E020C0000011241FBECFEFD1E2DEBFCDBF80
S11300F000E00CBF12E0A0E0B2E0E0E0FFE000E0CE
S11301000BBF02C007900D92A835B107D9F722E0C2
S1130110A8E5B2E001C01D92A637B207E1F7D0D23C
S1130120EDC675C587B1807F87B9459A469882E048
S11301308A95F1F700C0479A92E09A95F1F700C0CA
S113014086B18295807F92E09A95F1F700C0479836
S113015095E09A95F1F70000479A92E09A95F1F7A5
S113016000C096B192E09A95F1F700C0479895E0E7
S11301709A95F1F700008823F4F2459887B18F60CF
S113018087B90895282F22952F708F70611102C0AE
S1130190469801C0469A92E09A95F1F700C0479AB2
S11301A098B1907F922B98B995E09A95F1F7000059
S11301B0479895E09A95F1F70000479A98B1907F97
S11301C0892B88B985E08A95F1F70000479895E076
S11301D09A95F1F70000A6CF0895CF93C82F2FEF7B
S11301E086E791E0215080409040E1F700C0000094
S11301F087B18F6087B93F9A3E9A3D9A88B1807FD4
S113020088B947984598469800C000C00000479AAE
S1130210419A25E02A95F1F70000479885E08A95F0
S1130220F1F700007FDF60E08C2F8C60ABDF60E0D3
S113023088E2A8DFCF910895CF93DF93EC01888102
S1130240882331F0219661E09DDF89918111FBCFF4
S1130250DF91CF910895EF92FF920F931F93CF9365
S1130260DF9300D01F921F92CDB7DEB77B01FE0152
S1130270319625E0DF011D922A95E9F7009751F0A8
S113028035962AE030E0B901F1D48293862F972F76
S11302900097C9F7BFEFEB16FB0669F4898181115A
S11302A01DC0FE01329600E010E00F5F1F4F8191E8
S11302B08823D9F30FC005E010E00E191F090AC006
S11302C0F80181918F0161E0805D5CDF0E151F05EF
S11302D0B9F711C0053011051CF00DC000E010E0A5
S11302E081E090E08C0F9D1F080F191F7E0196E09E
S11302F0E90EF11CE5CF0F900F900F900F900F9027
S1130300DF91CF911F910F91FF90EF900895883264
S113031028F46111806460E0806834CF0895FC01A2
S113032011821082FB01118210820895CF93DF9312
S1130330EC0184E090E0C1D499838883FC011382AA
S11303401282DF91CF910895DB01ED91FC913097FA
S113035061F0DA018D919C911197938382838D9141
S11303609C91FB01918380830895DA012D913C9146
S11303701197FC01318320838D919C91DB018D9336
S11303809C930895FC0180819181DA018D939C9363
S1130390A081B181109741F012968D919C91139791
S11303A091838083892B19F4FB01118210820895B3
S11303B0AC01E1E8F0E090819860908388EE93E0EE
S11303C09093890080938800109285001092840095
S11303D020E030E005C0B19BFECFB19A2F5F3F4FC4
S11303E0241735071CF4B19BF6CFF7CF0895CF93AC
S11303F0DF93C8E8D3E18091080290910902019645
S11304009093090280930802809108029091090256
S1130410049724F01092090210920802E091080255
S1130420F0910902EC5AFD4F808182B984E190E099
S1130430BFDF219701F78091090188231CF5C9E0EA
S1130440D1E08091080290910902019690930902EB
S1130450809308028091080290910902049724F085
S11304601092090210920802E0910802F091090228
S1130470EC5AFD4F808182B984E190E099DF888154
S11304808823FCF2DF91CF910895EF92FF920F93AE
S11304901F93CF93DF9384E190E0909307028093BE
S11304A00602C0E0D0E00F2EFAE0EF2EF02DF12C82
S11304B004E110E080910802909109020196909362
S11304C0090280930802809108029091090204971E
S11304D024F01092090210920802E0910802F091AF
S11304E00902EC5AFD4F808182B9CA30D10574F4F7
S11304F09E012F5F3F4FC90199230CF401969595F6
S113050087959801281B390BC90102C08E2D9F2D98
S1130510C832D10514F0CE014E9790930702809310
S1130520060246DF2196C233D10521F6DF91CF9131
S11305301F910F91FF90EF900895CF92DF92EF9269
S1130540FF920F931F93CF93DF9384E190E09093F6
S1130550070280930602C0E0D0E003E010E00F2E13
S1130560FAE0CF2EF02DD12C0F2EF4E1EF2EF12C4A
S1130570F02D80910802909109020197909309024D
S1130580809308028091080290910902992324F42F
S11305901093090200930802E0910802F091090205
S11305A0EC5AFD4F808182B9CA30D10574F49E01A2
S11305B02F5F3F4FC90199230CF4019695958795B8
S11305C09701281B390BC90102C08C2D9D2DC832FF
S11305D0D10514F0CE014E97909307028093060242
S11305E0E7DE2196C233D10521F6DF91CF911F9129
S11305F00F91FF90EF90DF90CF900895CF92DF920C
S1130600EF92FF920F931F93CF93DF9384E190E0D7
S11306109093070280930602C0E0D0E003E010E06C
S11306200F2EFAE0CF2EF02DD12C0F2EF4E1EF2E69
S1130630F12CF02D8091080290910902019790937A
S1130640090280930802809108029091090299237B
S113065024F41093090200930802E0910802F09137
S11306600902EC5AFD4F808182B9CA30D10574F475
S11306709E012F5F3F4FC90199230CF40196959574
S113068087959701281B390BC90102C08C2D9D2D1C
S1130690CA35D1051CF0CE0180559109909307020B
S11306A08093060285DE2196C436D10519F6DF91C2
S11306B0CF911F910F91FF90EF90DF90CF9008950D
S11306C08F929F92AF92BF92CF92DF92EF92FF925E
S11306D00F931F93CF93DF93E1E6F0E080E88083EC
S11306E081E08083E1E8F0E0808182608083F89497
S11306F08FEF81B99FE894B987B980EF8AB91092D6
S11307000A0183E06ADD60E081E03CDDE89AE9E625
S1130710F0E0808182608083808181608083E99AB7
S113072080818860808380818B7F8083EA9A808146
S11307308062808380818F7E8083EB9A8081806851
S11307408083808180648083EAE7F0E08081806830
S11307508083808188608083ECE7F0E0808180641E
S11307608083789484B5836884BD85B5836085BDB2
S113077080E687BD3CDE67E672E08CE692E0CFDD82
S113078010926B028DE085B910926A020F2EFFE081
S1130790AF2EF02DC8E5D2E00F2EFDE0BF2EF02DD8
S11307A0E12C6894FF24F2F80F2EFAE7CF2ED12C17
S11307B0F02D6894992491F804E010E080916A0285
S11307C0823009F4EBC020F4813009F464C0F6CF20
S11307D0833021F0843009F464C1F0CFA5B860E01F
S11307E081E0D0DC8BE092E027DD60E080E08FDD0B
S11307F08BE092E021DD60E087E089DD8CE192E02E
S11308001BDD60E089E083DD888162E070E090E0D8
S113081022DD60E08CE07BDD82E192E00DDD60E0D2
S11308208EE075DD898162E070E090E014DD61E0C6
S113083087E06DDD85E192E0FFDC61E089E067DD62
S11308408A8162E070E090E006DD61E08CE05FDDCB
S113085088E192E0F1DC61E08EE059DD8B8162E0B9
S113086070E090E0F8DC61E080E051DD8BE192E043
S1130870E3DC61E083E04BDD8C8162E070E090E0DA
S1130880EADC80910A02813019F4B5B860E07ADCC0
S113089010926A0293CFF0926402E0926302109283
S11308A05E0210925D022BC080915F029091600203
S11308B0892B29F4F60180818064808320C02091F3
S11308C06502309166028091630290916402281758
S11308D0390740F480916502909166029093640216
S11308E0809363021092600210925F0280915D0215
S11308F090915E02019690935E0280935D02489906
S1130900D3CF80915D0290915E02181619060CF007
S113091042C08091630290916402833A934098F4B8
S113092080916302909164028D3B924070F48091B7
S11309306302909164028D32914048F40F2EF3E0EB
S11309408F2EF02D06C0812C04C0892C02C088246F
S113095083948EE692E0EADCE0916E02F0916F02FD
S113096080824EE652E067E672E08CE692E0ECDCD0
S11309708C818F5F8C8361E080E0C9DC8FE192E041
S11309805BDC61E08BE0C3DC80915D0290915E02F0
S113099065E070E060DC10926A0210CF10926A0287
S11309A085B18F6085B989E190E002DD40E752E0CE
S11309B067E672E08CE692E0E5DC8091700290914B
S11309C07102FC01808011D281100DC060E08AE0C8
S11309D09EDC8AE292E030DC8C8181508C838881B9
S11309E08F5F88832FC0F2E08F120DC060E08AE031
S11309F08EDC80E392E020DC8C8181508C838A81C0
S1130A008F5F8A831FC021E082120DC060E08AE0FC
S1130A107EDC86E392E010DC8C8181508C838981BA
S1130A208F5F89830FC083E088120CC060E08AE086
S1130A306EDC8CE392E000DC8C8181508C838B81B2
S1130A408F5F8B8320916B02821649F1E82DF0E0D1
S1130A5030E0C901019683709078992324F40197BA
S1130A608C6F9F6F0196E817F90721F466DD809279
S1130A706B0215C0C9010296B801F8D0E817F9074E
S1130A8021F4BCDD80926B020AC0C9010396B8014F
S1130A90EDD0E817F90719F4F8DC80926B02B5B8C9
S1130AA08DCE10926A0285B18F6085B960E081E0D5
S1130AB069DB81E492E0C0DB88EB9BE079DC80E0D9
S1130AC090E0DF91CF911F910F91FF90EF90DF9015
S1130AD0CF90BF90AF909F908F9008951F920F92E8
S1130AE00FB60F9211242F933F938F939F9380916E
S1130AF0780090E09093660280936502909179006B
S1130B002091650230916602892F90E0982F882702
S1130B10820F931F909366028093650281E090E0B8
S1130B209093600280935F029F918F913F912F91E8
S1130B300F900FBE0F901F9018951F920F920FB633
S1130B400F9211248F93489B03C081E080936A0223
S1130B508F910F900FBE0F901F9018951F920F92B8
S1130B600FB60F9211248F93499903C082E08093AA
S1130B706A028F910F900FBE0F901F9018951F92CD
S1130B800F920FB60F92112485B18F6085B960E082
S1130B9081E0F8DA85E492E04FDBFFCF1F920F92F9
S1130BA00FB60F9211240BB60F922F933F934F93CE
S1130BB05F936F937F938F939F93AF93BF93EF93C1
S1130BC0FF934B9B11C089E190E0F2DB90910A0204
S1130BD081E0892780930A0283E080936A024B991B
S1130BE0FECF89E190E0E4DBFF91EF91BF91AF91FB
S1130BF09F918F917F916F915F914F913F912F9131
S1130C000F900BBE0F900FBE0F901F9018951F9260
S1130C100F920FB60F9211240BB60F922F933F939E
S1130C204F935F936F937F938F939F93AF93BF93F0
S1130C30EF93FF9360E081E0A5DA8CE492E0FCDAC4
S1130C4088EB9BE0B5DBFF91EF91BF91AF919F9152
S1130C508F917F916F915F914F913F912F910F9061
S1130C600BBE0F900FBE0F901F90189597FB072E89
S1130C7016F4009406D077FD08D00BD007FC05D0FD
S1130C803EF4909581959F4F0895709561957F4F9F
S1130C900895AA1BBB1B51E107C0AA1FBB1FA617BF
S1130CA0B70710F0A61BB70B881F991F5A95A9F711
S1130CB080959095BC01CD0108950F931F93CF9318
S1130CC0DF938230910510F482E090E0E0917402A9
S1130CD0F091750220E030E0A0E0B0E0309719F127
S1130CE0408151810281138148175907C8F0841744
S1130CF0950769F4109731F012960C931297139696
S1130D001C9327C0009374021093750222C021150E
S1130D10310519F04217530718F49A01BD01EF0188
S1130D20DF01F801DBCF21153105F9F0281B390B60
S1130D302430310580F48A819B816115710521F08D
S1130D40FB019383828304C09093750280937402A1
S1130D50FE01329644C0FE01E20FF31F819391938A
S1130D6022503109398328833AC02091720230918C
S1130D707302232B41F42091020230910302309339
S1130D807302209372022091000230910102211516
S1130D90310541F42DB73EB740910402509105024C
S1130DA0241B350BE0917202F0917302E217F307F2
S1130DB0A0F42E1B3F0B2817390778F0AC014E5FC7
S1130DC05F4F2417350748F04E0F5F1F509373028F
S1130DD0409372028193919302C0E0E0F0E0CF016E
S1130DE0DF91CF911F910F910895CF93DF930097D7
S1130DF009F481C0FC01329713821282A09174021B
S1130E00B0917502109781F420813181820F931F74
S1130E1020917202309173022817390751F5F0932B
S1130E207302E093720267C0ED0120E030E0CE1758
S1130E30DF0740F44A815B819E0141155105F1F0C1
S1130E40EA01F5CFD383C28340815181840F951F7A
S1130E50C817D90759F488819981840F951F029680
S1130E60918380838A819B819383828321153105B9
S1130E7029F4F0937502E09374023DC0E901FB8309
S1130E80EA8349915991C40FD51FEC17FD0761F40A
S1130E9080819181840F951F0296E901998388834B
S1130EA0828193819B838A83E0E0F0E012968D91A6
S1130EB09C911397009719F0FD01DC01F7CF8D91F8
S1130EC09C9111979D012E5F3F4F820F931F20919C
S1130ED07202309173022817390769F4309729F4A4
S1130EE0109275021092740202C013821282B0939F
S1130EF07302A0937202DF91CF910895F894FFCF0B
S1130F000000760220000A0030000150415553458C
S1130F104400533A00573A00413A0042423A0056DC
S1130F20616C20436F756E743A00424C41434B0030
S1130F30574849544500535445454C00414C554D80
S1130F4000454E44004B494C4C4544004953522003
S10B0F5042414400362E2D3508
S9030000FC
