S01800004C616235576F726B696E67436F7079312E737265631B
S113000071C000004BC500005AC5000069C500005E
S113001076C5000086C0000084C0000082C00000D5
S113002080C000007EC000007CC000007AC00000D8
S113003078C0000076C0000074C0000072C00000E8
S113004070C000006EC000006CC000006AC00000F8
S113005068C0000066C0000064C0000062C0000008
S113006060C000005EC000005CC000005AC0000018
S113007058C00000E4C4000054C0000052C0000096
S113008050C000004EC000004CC000004AC0000038
S113009048C0000046C0000044C0000042C0000048
S11300A040C000003EC000003CC000003AC0000058
S11300B038C0000036C0000034C0000032C0000068
S11300C030C000002EC000002CC000002AC0000078
S11300D028C0000026C0000024C0000022C0000088
S11300E020C0000011241FBECFEFD1E2DEBFCDBF80
S11300F000E00CBF12E0A0E0B2E0E2E6FEE000E0C7
S11301000BBF02C007900D92A434B107D9F722E0C7
S1130110A4E4B2E001C01D92A236B207E1F7D0D246
S11301209EC626C587B1807F87B9459A469882E0E6
S11301308A95F1F700C0479A92E09A95F1F700C0CA
S113014086B18295807F92E09A95F1F700C0479836
S113015095E09A95F1F70000479A92E09A95F1F7A5
S113016000C096B192E09A95F1F700C0479895E0E7
S11301709A95F1F700008823F4F2459887B18F60CF
S113018087B90895282F22952F708F70611102C0AE
S1130190469801C0469A92E09A95F1F700C0479AB2
S11301A098B1907F922B98B995E09A95F1F7000059
S11301B0479895E09A95F1F70000479A98B1907F97
S11301C0892B88B985E08A95F1F70000479895E076
S11301D09A95F1F70000A6CF0895CF93C82F2FEF7B
S11301E086E791E0215080409040E1F700C0000094
S11301F087B18F6087B93F9A3E9A3D9A88B1807FD4
S113020088B947984598469800C000C00000479AAE
S1130210419A25E02A95F1F70000479885E08A95F0
S1130220F1F700007FDF60E08C2F8C60ABDF60E0D3
S113023088E2A8DFCF910895CF93DF93EC01888102
S1130240882331F0219661E09DDF89918111FBCFF4
S1130250DF91CF910895EF92FF920F931F93CF9365
S1130260DF9300D01F921F92CDB7DEB77B01FE0152
S1130270319625E0DF011D922A95E9F7009751F0A8
S113028035962AE030E0B901A2D48293862F972FC5
S11302900097C9F7BFEFEB16FB0669F4898181115A
S11302A01DC0FE01329600E010E00F5F1F4F8191E8
S11302B08823D9F30FC005E010E00E191F090AC006
S11302C0F80181918F0161E0805D5CDF0E151F05EF
S11302D0B9F711C0053011051CF00DC000E010E0A5
S11302E081E090E08C0F9D1F080F191F7E0196E09E
S11302F0E90EF11CE5CF0F900F900F900F900F9027
S1130300DF91CF911F910F91FF90EF900895883264
S113031028F46111806460E0806834CF0895FC01A2
S113032011821082FB01118210820895CF93DF9312
S1130330EC0184E090E072D499838883FC011382F9
S11303401282DF91CF910895DB01ED91FC913097FA
S113035061F0DA018D919C911197938382838D9141
S11303609C91FB01918380830895DA012D913C9146
S11303701197FC01318320838D919C91DB018D9336
S11303809C930895FC0180819181DA018D939C9363
S1130390A081B181109741F012968D919C91139791
S11303A091838083892B19F4FB01118210820895B3
S11303B0AC01E1E8F0E090819860908388EE93E0EE
S11303C09093890080938800109285001092840095
S11303D020E030E005C0B19BFECFB19A2F5F3F4FC4
S11303E0241735071CF4B19BF6CFF7CF0895CF93AC
S11303F0DF93C9E1D0E0809108029091090201964F
S11304009093090280930802809108029091090256
S1130410049724F01092090210920802E091080255
S1130420F0910902E05CFD4F808182B984E190E0A3
S1130430BFDF219701F78091090188231CF5C9E0EA
S1130440D1E08091080290910902019690930902EB
S1130450809308028091080290910902049724F085
S11304601092090210920802E0910802F091090228
S1130470E05CFD4F808182B984E190E099DF88815E
S11304808823FCF2DF91CF910895EF92FF920F93AE
S11304901F93CF93DF9384E190E0909307028093BE
S11304A00602C0E0D0E00F2EFAE0EF2EF02DF12C82
S11304B004E110E080910802909109020196909362
S11304C0090280930802809108029091090204971E
S11304D024F01092090210920802E0910802F091AF
S11304E00902E05CFD4F808182B9CA30D10574F401
S11304F09E012F5F3F4FC90199230CF401969595F6
S113050087959801281B390BC90102C08E2D9F2D98
S1130510C832D10514F0CE014E9790930702809310
S1130520060246DF2196C233D10521F6DF91CF9131
S11305301F910F91FF90EF900895CF92DF92EF9269
S1130540FF920F931F93CF93DF9384E190E09093F6
S1130550070280930602C0E0D0E003E010E00F2E13
S1130560FAE0CF2EF02DD12C0F2EF4E1EF2EF12C4A
S1130570F02D80910802909109020197909309024D
S1130580809308028091080290910902992324F42F
S11305901093090200930802E0910802F091090205
S11305A0E05CFD4F808182B9CA30D10574F49E01AC
S11305B02F5F3F4FC90199230CF4019695958795B8
S11305C09701281B390BC90102C08C2D9D2DC832FF
S11305D0D10514F0CE014E97909307028093060242
S11305E0E7DE2196C233D10521F6DF91CF911F9129
S11305F00F91FF90EF90DF90CF900895CF92DF920C
S1130600EF92FF920F931F93CF93DF9384E190E0D7
S11306109093070280930602C0E0D0E003E010E06C
S11306200F2EFAE0CF2EF02DD12C0F2EF4E1EF2E69
S1130630F12CF02D8091080290910902019790937A
S1130640090280930802809108029091090299237B
S113065024F41093090200930802E0910802F09137
S11306600902E05CFD4F808182B9CA30D10574F47F
S11306709E012F5F3F4FC90199230CF40196959574
S113068087959701281B390BC90102C08C2D9D2D1C
S1130690CA35D1051CF0CE0180559109909307020B
S11306A08093060285DE2196C436D10519F6DF91C2
S11306B0CF911F910F91FF90EF90DF90CF9008950D
S11306C07F928F929F92AF92BF92CF92DF92EF92DE
S11306D0FF920F931F93CF93DF93E1E6F0E080E85E
S11306E0808381E08083E1E8F0E080818260808320
S11306F0F8948FEF81B99FE894B987B980EF8AB9EC
S113070010920A0183E069DD60E081E03BDDE89A54
S1130710E9E6F0E08081826080838081816080836B
S1130720E99A80818860808380818B7F8083EA9AC4
S113073080818062808380818F7E8083EB9A808138
S113074080688083808180648083EAE7F0E0808130
S113075080688083808188608083ECE7F0E080811A
S113076080648083789484B5836884BD85B5836010
S113077085BD80E687BD3BDE63E572E088E592E0F7
S1130780CEDD109257028DE085B9109256020F2EDD
S1130790FFE0BF2EF02D0F2EFDE0AF2EF02DC12C6B
S11307A06894DD24D2F8CAE7D0E004E412E0689447
S11307B0992491F80F2EF3E08F2EF02D6894EE24F7
S11307C0E2F8F12C80915602823009F493C018F4B7
S11307D0813081F0F7CF833021F08A3009F411C1E0
S11307E0F1CFB5B880910A028130D9F7A5B810923B
S11307F05602E8CFD0925002C0924F0210924A02A1
S1130800109249022AC080914B0290914C02892B8C
S113081021F488818064888320C020915102309122
S1130820520280914F02909150022817390740F4E8
S113083080915102909152029093500280934F0202
S113084010924C0210924B028091490290914A02FC
S1130850019690934A02809349024899D4CF80919B
S1130860490290914A02181619060CF040C0809172
S11308704F0290915002833A934080F480914F024A
S1130880909150028D3B924058F480914F02909188
S113089050028D32914030F4782C06C0712C04C083
S11308A0792C02C0772473948AE592E03FDDE091CD
S11308B05A02F0915B0270824AE552E063E572E00D
S11308C088E592E041DDF80184818F5F848361E0F3
S11308D080E01DDD8BE092E0AFDC61E08BE017DDB2
S11308E08091490290914A0265E070E0B4DC109274
S11308F0560268CF1092560285B18F6085B989E19E
S113090090E056DD4CE552E063E572E088E592E064
S113091039DD80915C0290915D02FC01708016D2F9
S113092071100EC060E08AE0F2DC86E192E084DCC3
S1130930F80184818150848380818F5F808332C0F9
S1130940F2E07F120EC060E08AE0E1DC8CE192E02C
S113095073DCF80184818150848382818F5F828378
S113096021C0F1E07F120EC060E08AE0D0DC82E2B8
S113097092E062DCF80184818150848381818F5FFD
S1130980818310C0F3E07F120DC060E08AE0BFDC19
S113099088E292E051DCF801848181508483838170
S11309A08F5F838320915702721649F1E72DF0E09F
S11309B030E0C901019683709078992324F401975B
S11309C08C6F9F6F0196E817F90721F4B6DD7092DA
S11309D0570215C0C9010296B701F9D0E817F90703
S11309E021F40CDE709257020AC0C9010396B701C4
S11309F0EED0E817F90719F448DD70925702A5B84C
S1130A00E1CE1092560285B18F6085B960E081E035
S1130A10B9DB8DE292E010DC88EB9BE0C9DC80E07E
S1130A2090E0DF91CF911F910F91FF90EF90DF90B5
S1130A30CF90BF90AF909F908F907F9008951F921A
S1130A400F920FB60F9211242F933F938F939F937E
S1130A508091780090E0909352028093510290919B
S1130A6079002091510230915202892F90E0982F01
S1130A708827820F931F909352028093510281E042
S1130A8090E090934C0280934B029F918F913F9101
S1130A902F910F900FBE0F901F9018951F920F92D9
S1130AA00FB60F9211248F93489B03C081E080936B
S1130AB056028F910F900FBE0F901F9018951F92A2
S1130AC00F920FB60F9211248F93499903C082E0BD
S1130AD0809356028F910F900FBE0F901F90189520
S1130AE01F920F920FB60F92112485B18F6085B9B2
S1130AF060E081E047DB81E392E09EDBFFCF1F9261
S1130B000F920FB60F9211240BB60F922F933F93AF
S1130B104F935F936F937F938F939F93AF93BF9301
S1130B20EF93FF934B9B11C089E190E041DC9091DE
S1130B300A0281E0892780930A0283E080935602A7
S1130B404B99FECF89E190E033DCFF91EF91BF91A7
S1130B50AF919F918F917F916F915F914F913F9151
S1130B602F910F900BBE0F900FBE0F901F901895F2
S1130B701F920F920FB60F9211240BB60F922F9360
S1130B803F934F935F936F937F938F939F93AF9311
S1130B90BF93EF93FF9360E081E0F4DA88E392E09F
S1130BA04BDB88EB9BE004DCFF91EF91BF91AF91AD
S1130BB09F918F917F916F915F914F913F912F9171
S1130BC00F900BBE0F900FBE0F901F90189597FBC0
S1130BD0072E16F4009406D077FD08D00BD007FC3E
S1130BE005D03EF4909581959F4F08957095619539
S1130BF07F4F0895AA1BBB1B51E107C0AA1FBB1F4F
S1130C00A617B70710F0A61BB70B881F991F5A9594
S1130C10A9F780959095BC01CD0108950F931F937A
S1130C20CF93DF938230910510F482E090E0E0915D
S1130C306002F091610220E030E0A0E0B0E0309783
S1130C4019F1408151810281138148175907C8F075
S1130C508417950769F4109731F012960C93129744
S1130C6013961C9327C0009360021093610222C064
S1130C702115310519F04217530718F49A01BD01E3
S1130C80EF01DF01F801DBCF21153105F9F0281B55
S1130C90390B2430310580F48A819B8161157105FB
S1130CA021F0FB019383828304C0909361028093BB
S1130CB06002FE01329644C0FE01E20FF31F8193ED
S1130CC0919322503109398328833AC020915E02DE
S1130CD030915F02232B41F42091020230910302F0
S1130CE030935F0220935E02209100023091010252
S1130CF02115310541F42DB73EB7409104025091BE
S1130D000502241B350BE0915E02F0915F02E217AD
S1130D10F307A0F42E1B3F0B2817390778F0AC011A
S1130D204E5F5F4F2417350748F04E0F5F1F5093F7
S1130D305F0240935E028193919302C0E0E0F0E091
S1130D40CF01DF91CF911F910F910895CF93DF933E
S1130D50009709F481C0FC01329713821282A0919A
S1130D606002B0916102109781F420813181820F79
S1130D70931F20915E0230915F022817390751F5C5
S1130D80F0935F02E0935E0267C0ED0120E030E083
S1130D90CE17DF0740F44A815B819E01411551055E
S1130DA0F1F0EA01F5CFD383C28340815181840FEE
S1130DB0951FC817D90759F488819981840F951F05
S1130DC00296918380838A819B81938382832115F8
S1130DD0310529F4F0936102E09360023DC0E9011A
S1130DE0FB83EA8349915991C40FD51FEC17FD0782
S1130DF061F480819181840F951F0296E9019983A2
S1130E008883828193819B838A83E0E0F0E0129659
S1130E108D919C911397009719F0FD01DC01F7CF98
S1130E208D919C9111979D012E5F3F4F820F931FCF
S1130E3020915E0230915F022817390769F43097D8
S1130E4029F4109261021092600202C0138212828D
S1130E50B0935F02A0935E02DF91CF910895F8945E
S1050E60FFCFBE
S1130E62000062022000140030000156616C20432D
S1130E726F756E743A00424C41434B0057484954D3
S1130E824500535445454C00414C554D00454E4494
S1130E92004B494C4C4544004953522042414400C2
S1070EA230062805E5
S9030000FC
