:1000000071C00000AEC50000CAC50000E7C5000011
:100010003EC6000086C0000084C0000082C0000010
:1000200080C000007EC000007CC000007AC00000DC
:1000300078C0000076C0000074C0000072C00000EC
:1000400070C000006EC000006CC000006AC00000FC
:1000500068C0000066C0000064C0000062C000000C
:1000600060C000005EC000005CC000005AC000001C
:1000700058C0000047C5000054C0000052C0000036
:10008000EEC500004EC000004CC000004AC0000099
:1000900048C0000046C0000044C0000042C000004C
:1000A00040C000003EC000003CC000003AC000005C
:1000B00038C0000036C0000034C0000032C000006C
:1000C00030C000002EC000002CC000002AC000007C
:1000D00028C0000026C0000024C0000022C000008C
:1000E00020C0000011241FBECFEFD1E2DEBFCDBF84
:1000F00000E00CBF12E0A0E0B2E0E2EFFFE000E0C1
:100100000BBF02C007900D92A235B107D9F722E0CC
:10011000A2E5B2E001C01D92A937B207E1F7B8D25B
:1001200066C7EEC587B1807F87B9459A469882E059
:100130008A95F1F700C0479A92E09A95F1F700C0CE
:1001400086B18295807F92E09A95F1F700C047983A
:1001500095E09A95F1F70000479A92E09A95F1F7A9
:1001600000C096B192E09A95F1F700C0479895E0EB
:100170009A95F1F700008823F4F2459887B18F60D3
:1001800087B90895282F22952F708F70611102C0B2
:10019000469801C0469A92E09A95F1F700C0479AB6
:1001A00098B1907F922B98B995E09A95F1F700005D
:1001B000479895E09A95F1F70000479A98B1907F9B
:1001C000892B88B985E08A95F1F70000479895E07A
:1001D0009A95F1F70000A6CF0895CF93C82F2FEF7F
:1001E00086E791E0215080409040E1F700C0000098
:1001F00087B18F6087B93F9A3E9A3D9A88B1807FD8
:1002000088B947984598469800C000C00000479AB2
:10021000419A25E02A95F1F70000479885E08A95F4
:10022000F1F700007FDF60E08C2F8C60ABDF60E0D7
:1002300088E2A8DFCF910895CF93DF93EC01888106
:10024000882331F0219661E09DDF89918111FBCFF8
:10025000DF91CF910895EF92FF920F931F93CF9369
:10026000DF9300D01F921F92CDB7DEB77B01FE0156
:10027000319625E0DF011D922A95E9F7009751F0AC
:1002800035962AE030E0B9016AD58293862F972F00
:100290000097C9F7BFEFEB16FB0669F4898181115E
:1002A0001DC0FE01329600E010E00F5F1F4F8191EC
:1002B0008823D9F30FC005E010E00E191F090AC00A
:1002C000F80181918F0161E0805D5CDF0E151F05F3
:1002D000B9F711C0053011051CF00DC000E010E0A9
:1002E00081E090E08C0F9D1F080F191F7E0196E0A2
:1002F000E90EF11CE5CF0F900F900F900F900F902B
:10030000DF91CF911F910F91FF90EF900895883268
:1003100028F46111806460E0806834CF0895FC01A6
:1003200011821082FB01118210820895CF93DF9316
:10033000EC0184E090E03AD599838883FC01138234
:100340001282DF91CF910895DB01ED91FC913097FE
:1003500061F0DA018D919C911197938382838D9145
:100360009C91FB01918380830895DA012D913C914A
:100370001197FC01318320838D919C91DB018D933A
:100380009C930895FC0180819181DA018D939C9367
:10039000A081B181109741F012968D919C91139795
:1003A00091838083892B19F4FB01118210820895B7
:1003B000AC01E1E8F0E090819860908384E690E001
:1003C0009093890080938800109285001092840099
:1003D00020E030E005C0B19BFECFB19A2F5F3F4FC8
:1003E000241735071CF4B19BF6CFF7CF0895CF92B1
:1003F000DF92EF92FF920F931F93CF93DF938C01C5
:100400006130710509F04FC0C5E3D2E00F2EFEE464
:10041000EF2EF2E0FF2EF02D0F2EF3E0CF2ED12C99
:10042000F02D01301105A1F480910802909109028C
:10043000019790930902809308028091080290919D
:1004400009029923C4F4D0920902C092080213C091
:10045000809108029091090201969093090280937D
:1004600008028091080290910902049724F01092EA
:10047000090210920802E0910802F0910902E25B81
:10048000FD4F808182B9899190E0909370028093B2
:100490006F0280916F02909170028ADFEC16FD0668
:1004A00009F0BFCF4EC0CEE4D2E00F2EF5E3EF2E21
:1004B000F2E0FF2EF02D0F2EF3E0CF2ED12CF02DF9
:1004C00001301105A1F48091080290910902019771
:1004D000909309028093080280910802909109028A
:1004E0009923C4F4D0920902C092080213C08091EB
:1004F00008029091090201969093090280930802E4
:100500008091080290910902049724F01092090248
:1005100010920802E0910802F0910902E25BFD4F9F
:10052000808182B98A9190E09093700280936F02EB
:1005300080916F02909170023BDFEC16FD0609F08E
:10054000BFCFDF91CF911F910F91FF90EF90DF9080
:10055000CF900895CF93DF93C9E1D0E08091080256
:10056000909109020196909309028093080280916C
:10057000080290910902049724F010920902109247
:100580000802E0910802F0910902E25BFD4F8081D0
:1005900082B986E990E00CDF219701F7809109018B
:1005A00088231CF5C9E0D1E08091080290910902EE
:1005B000019690930902809308028091080290911D
:1005C0000902049724F01092090210920802E091A7
:1005D0000802F0910902E25BFD4F808182B988EC4C
:1005E00090E0E6DE88818823FCF2DF91CF910895C8
:1005F00061E070E080E090E0FADE60E070E080E0D2
:1006000090E0F5CE089561E070E081E090E0EFDEEB
:1006100060E070E081E090E0EACE08950F931F93D0
:10062000CF93DF9361E070E081E090E0E0DE02E3F1
:1006300010E0C3E0D0E08091080290910902019798
:100640009093090280930802809108029091090218
:10065000992324F4D0930902C0930802E091080280
:10066000F0910902E25BFD4F808182B98091060220
:10067000909107029DDE01501109E9F660E070E0FB
:1006800081E090E0B4DEDF91CF911F910F9108954A
:100690008F929F92AF92BF92CF92DF92EF92FF9292
:1006A0000F931F93CF93DF93E1E6F0E080E8808320
:1006B00081E08083E1E8F0E0808182608083F894CB
:1006C0008FEF81B99FE894B987B980EF8AB910920A
:1006D0000A0183E082DD60E081E054DDE89AE9E62A
:1006E000F0E0808182608083808181608083E99AEC
:1006F00080818860808380818B7F8083EA9A80817B
:100700008062808380818F7E8083EB9A8081806885
:100710008083808180648083EAE7F0E08081806864
:100720008083808188608083ECE7F0E08081806452
:100730008083789484B5836884BD85B5836085BDE6
:1007400080E687BD07DF68E672E08DE692E0E7DDD0
:1007500010926C028DE085B910926B020F2EFFE0B3
:10076000AF2EF02DC2E5D2E00F2EFDE0BF2EF02D12
:10077000E12C6894FF24F2F80F2EFAE7CF2ED12C4B
:10078000F02D6894992491F804E010E080916B02B8
:10079000823009F4DEC020F4813009F464C0F6CF61
:1007A000833021F0843009F44FC1F0CFA5B860E068
:1007B00081E0E8DC8BE092E03FDD60E080E0A7DDF7
:1007C0008BE092E039DD60E087E0A1DD8CE192E032
:1007D00033DD60E089E09BDD888162E070E090E0DD
:1007E0003ADD60E08CE093DD82E192E025DD60E0BF
:1007F0008EE08DDD898162E070E090E02CDD61E0CB
:1008000087E085DD85E192E017DD61E089E07FDD4D
:100810008A8162E070E090E01EDD61E08CE077DDCF
:1008200088E192E009DD61E08EE071DD8B8162E0BC
:1008300070E090E010DD61E080E069DD8BE192E046
:10084000FBDC61E083E063DD8C8162E070E090E0DE
:1008500002DD80910A02813019F4B5B860E092DCC3
:1008600010926B0293CF10926B02F0926502E092AD
:10087000640210925F0210925E022BC080916002AF
:1008800090916102892B29F4F60180818064808334
:1008900020C020916602309167028091640290919D
:1008A00065022817390740F480916602909167022B
:1008B000909365028093640210926102109260022C
:1008C00080915E0290915F02019690935F02809307
:1008D0005E024899D3CF80915E0290915F02181614
:1008E000190694F58091640290916502833A9340D1
:1008F00098F480916402909165028D3B924070F46F
:1009000080916402909165028D32914048F40F2EDF
:10091000F3E08F2EF02D06C0812C04C0892C02C07C
:100920008824839481E792E001DDE0917102F091E7
:100930007202808241E752E068E672E08DE692E062
:1009400003DD8C818F5F8C831092580210925702C6
:100950001DCF10926B0285B18F6085B98AEF90E050
:1009600027DD43E752E068E672E08DE692E00ADDBB
:100970008091730290917402FC018080AFD281104B
:1009800007C08C8181508C8388818F5F88831DC0D4
:10099000F2E08F1207C08C8181508C838A818F5F37
:1009A0008A8313C021E0821207C08C8181508C831E
:1009B00089818F5F898309C083E0881206C08C819A
:1009C00081508C838B818F5F8B8320916C02821688
:1009D00049F1E82DF0E030E0C9010196837090788C
:1009E000992324F401978C6F9F6F0196E817F907FC
:1009F00021F409DE80926C0215C0C9010296B8018B
:100A0000AED1E817F90721F409DE80926C020AC022
:100A1000C9010396B801A3D1E817F90719F4E8DD75
:100A200080926C02B5B881E090E0C2DC10925A026C
:100A30001092590280915C0290915D02019709F039
:100A4000A5CE8C818111A2CE88E893E1B1DC85B17D
:100A50008F6085B960E081E095DB60E080E057DC85
:100A60008FE192E0E9DB61E080E051DC86E292E038
:100A7000E3DB60E087E04BDC8CE192E0DDDB60E013
:100A800089E045DCC2E5D2E0888162E070E090E078
:100A9000E2DB60E08CE03BDC82E192E0CDDB60E019
:100AA0008EE035DC898162E070E090E0D4DB61E0CB
:100AB00087E02DDC85E192E0BFDB61E089E027DCA7
:100AC0008A8162E070E090E0C6DB61E08CE01FDCD0
:100AD00088E192E0B1DB61E08EE019DC8B8162E0BD
:100AE00070E090E0B8DB80E090E0DF91CF911F9163
:100AF0000F91FF90EF90DF90CF90BF90AF909F90BD
:100B00008F9008951F920F920FB60F9211242F937A
:100B10003F938F939F938091780090E0909367022A
:100B2000809366029091790020916602309167026D
:100B3000892F90E0982F8827820F931F9093670248
:100B40008093660281E090E090936102809360025E
:100B50009F918F913F912F910F900FBE0F901F90FB
:100B600018951F920F920FB60F9211248F939F9397
:100B7000489B0EC08091570290915802892B41F4F6
:100B800081E090E0909358028093570280936B022B
:100B90009F918F910F900FBE0F901F9018951F92ED
:100BA0000F920FB60F9211248F939F9349990FC004
:100BB0008091590290915A02892B49F481E090E08A
:100BC00090935A028093590282E080936B029F9126
:100BD0008F910F900FBE0F901F9018951F920F923C
:100BE0000FB60F9211240BB60F928F939F93AF9372
:100BF000BF93EF93FF9380915B02811123C010920A
:100C00005D0210925C0281E080935B02E1E9F0E01A
:100C10001082109290001082109295001092940011
:100C20008FE995E19093990080939800C19AA1E78C
:100C3000B0E08C9182608C93808188608083808119
:100C400085608083FF91EF91BF91AF919F918F91CC
:100C50000F900BBE0F900FBE0F901F9018951F9214
:100C60000F920FB60F9211248F939F9310929100C1
:100C700010925B0281E090E090935D0280935C02B1
:100C80009F918F910F900FBE0F901F9018951F92FC
:100C90000F920FB60F9211240BB60F922F933F9322
:100CA0004F935F936F937F938F939F93AF93BF9374
:100CB000EF93FF934B9B11C08AEF90E079DB90910B
:100CC0000A0281E0892780930A0283E080936B0205
:100CD0004B99FECF8AEF90E06BDBFF91EF91BF91D4
:100CE000AF919F918F917F916F915F914F913F91C4
:100CF0002F910F900BBE0F900FBE0F901F90189565
:100D00001F920F920FB60F9211240BB60F922F93D2
:100D10003F934F935F936F937F938F939F93AF9383
:100D2000BF93EF93FF9360E081E02CDA8DE292E0D5
:100D300083DA80E395E73CDBFF91EF91BF91AF91C0
:100D40009F918F917F916F915F914F913F912F91E3
:100D50000F900BBE0F900FBE0F901F90189597FB32
:100D6000072E16F4009406D077FD08D00BD007FCB0
:100D700005D03EF4909581959F4F089570956195AB
:100D80007F4F0895AA1BBB1B51E107C0AA1FBB1FC1
:100D9000A617B70710F0A61BB70B881F991F5A9507
:100DA000A9F780959095BC01CD0108950F931F93ED
:100DB000CF93DF938230910510F482E090E0E091D0
:100DC0007702F091780220E030E0A0E0B0E03097C8
:100DD00019F1408151810281138148175907C8F0E8
:100DE0008417950769F4109731F012960C931297B7
:100DF00013961C9327C0009377021093780222C0A9
:100E00002115310519F04217530718F49A01BD0155
:100E1000EF01DF01F801DBCF21153105F9F0281BC7
:100E2000390B2430310580F48A819B81611571056D
:100E300021F0FB019383828304C090937802809316
:100E40007702FE01329644C0FE01E20FF31F819348
:100E5000919322503109398328833AC02091750239
:100E600030917602232B41F420910202309103024B
:100E70003093760220937502209100023091010296
:100E80002115310541F42DB73EB740910402509130
:100E90000502241B350BE0917502F0917602E217F2
:100EA000F307A0F42E1B3F0B2817390778F0AC018D
:100EB0004E5F5F4F2417350748F04E0F5F1F50936A
:100EC0007602409375028193919302C0E0E0F0E0D6
:100ED000CF01DF91CF911F910F910895CF93DF93B1
:100EE000009709F481C0FC01329713821282A0910D
:100EF0007702B0917802109781F420813181820FBE
:100F0000931F20917502309176022817390751F509
:100F1000F0937602E093750267C0ED0120E030E0C7
:100F2000CE17DF0740F44A815B819E0141155105D0
:100F3000F1F0EA01F5CFD383C28340815181840F60
:100F4000951FC817D90759F488819981840F951F77
:100F50000296918380838A819B819383828321156A
:100F6000310529F4F0937802E09377023DC0E9015E
:100F7000FB83EA8349915991C40FD51FEC17FD07F4
:100F800061F480819181840F951F0296E901998314
:100F90008883828193819B838A83E0E0F0E01296CC
:100FA0008D919C911397009719F0FD01DC01F7CF0B
:100FB0008D919C9111979D012E5F3F4F820F931F42
:100FC00020917502309176022817390769F430971D
:100FD00029F4109278021092770202C013821282D2
:100FE000B0937602A0937502DF91CF910895F894A3
:020FF000FFCF31
:100FF2000000790220003200300001504155534573
:101002004400533A00573A00413A0042423A0052F1
:10101200616D70656400446F776E3A2900495352DE
:1010220020424144007878777674726F6C6864600D
:101032005C5854504C4844403C3834302C28362EAE
:021042002D354A
:00000001FF
