S01800004C616235576F726B696E67436F7079312E737265631B
S113000071C000000FC500001EC500002DC5000012
S11300103AC5000086C0000084C0000082C0000011
S113002080C000007EC000007CC000007AC00000D8
S113003078C0000076C0000074C0000072C00000E8
S113004070C000006EC000006CC000006AC00000F8
S113005068C0000066C0000064C0000062C0000008
S113006060C000005EC000005CC000005AC0000018
S113007058C00000A8C4000054C0000052C00000D2
S113008050C000004EC000004CC000004AC0000038
S113009048C0000046C0000044C0000042C0000048
S11300A040C000003EC000003CC000003AC0000058
S11300B038C0000036C0000034C0000032C0000068
S11300C030C000002EC000002CC000002AC0000078
S11300D028C0000026C0000024C0000022C0000088
S11300E020C0000011241FBECFEFD1E2DEBFCDBF80
S11300F000E00CBF12E0A0E0B2E0E0E0FEE000E0CF
S11301000BBF02C007900D92A434B107D9F722E0C7
S1130110A4E4B2E001C01D92AE35B207E1F7D0D23B
S11301206DC6F5C487B1807F87B9459A469882E049
S11301308A95F1F700C0479A92E09A95F1F700C0CA
S113014086B18295807F92E09A95F1F700C0479836
S113015095E09A95F1F70000479A92E09A95F1F7A5
S113016000C096B192E09A95F1F700C0479895E0E7
S11301709A95F1F700008823F4F2459887B18F60CF
S113018087B90895282F22952F708F70611102C0AE
S1130190469801C0469A92E09A95F1F700C0479AB2
S11301A098B1907F922B98B995E09A95F1F7000059
S11301B0479895E09A95F1F70000479A98B1907F97
S11301C0892B88B985E08A95F1F70000479895E076
S11301D09A95F1F70000A6CF0895CF93C82F2FEF7B
S11301E086E791E0215080409040E1F700C0000094
S11301F087B18F6087B93F9A3E9A3D9A88B1807FD4
S113020088B947984598469800C000C00000479AAE
S1130210419A25E02A95F1F70000479885E08A95F0
S1130220F1F700007FDF60E08C2F8C60ABDF60E0D3
S113023088E2A8DFCF910895CF93DF93EC01888102
S1130240882331F0219661E09DDF89918111FBCFF4
S1130250DF91CF910895EF92FF920F931F93CF9365
S1130260DF9300D01F921F92CDB7DEB77B01FE0152
S1130270319625E0DF011D922A95E9F7009751F0A8
S113028035962AE030E0B90171D48293862F972FF6
S11302900097C9F7BFEFEB16FB0669F4898181115A
S11302A01DC0FE01329600E010E00F5F1F4F8191E8
S11302B08823D9F30FC005E010E00E191F090AC006
S11302C0F80181918F0161E0805D5CDF0E151F05EF
S11302D0B9F711C0053011051CF00DC000E010E0A5
S11302E081E090E08C0F9D1F080F191F7E0196E09E
S11302F0E90EF11CE5CF0F900F900F900F900F9027
S1130300DF91CF911F910F91FF90EF900895883264
S113031028F46111806460E0806834CF0895FC01A2
S113032011821082FB01118210820895CF93DF9312
S1130330EC0184E090E041D499838883FC0113822A
S11303401282DF91CF910895DB01ED91FC913097FA
S113035061F0DA018D919C911197938382838D9141
S11303609C91FB01918380830895DA012D913C9146
S11303701197FC01318320838D919C91DB018D9336
S11303809C930895FC0180819181DA018D939C9363
S1130390A081B181109741F012968D919C91139791
S11303A091838083892B19F4FB01118210820895B3
S11303B0AC01E1E8F0E090819860908388EE93E0EE
S11303C09093890080938800109285001092840095
S11303D020E030E005C0B19BFECFB19A2F5F3F4FC4
S11303E0241735071CF4B19BF6CFF7CF0895CF93AC
S11303F0DF93C9E1D0E0809108029091090201964F
S11304009093090280930802809108029091090256
S1130410049724F01092090210920802E091080255
S1130420F0910902E15CFD4F808182B984E190E0A2
S1130430BFDF219701F78091090188231CF5C9E0EA
S1130440D1E08091080290910902019690930902EB
S1130450809308028091080290910902049724F085
S11304601092090210920802E0910802F091090228
S1130470E15CFD4F808182B984E190E099DF88815D
S11304808823FCF2DF91CF910895EF92FF920F93AE
S11304901F93CF93DF9384E190E0909307028093BE
S11304A00602C0E0D0E00F2EFAE0EF2EF02DF12C82
S11304B004E110E080910802909109020196909362
S11304C0090280930802809108029091090204971E
S11304D024F01092090210920802E0910802F091AF
S11304E00902E15CFD4F808182B9CA30D10574F400
S11304F09E012F5F3F4FC90199230CF401969595F6
S113050087959801281B390BC90102C08E2D9F2D98
S1130510C832D10514F0CE014E9790930702809310
S1130520060246DF2196C233D10521F6DF91CF9131
S11305301F910F91FF90EF900895CF92DF92EF9269
S1130540FF920F931F93CF93DF9384E190E09093F6
S1130550070280930602C0E0D0E003E010E00F2E13
S1130560FAE0CF2EF02DD12C0F2EF4E1EF2EF12C4A
S1130570F02D80910802909109020197909309024D
S1130580809308028091080290910902992324F42F
S11305901093090200930802E0910802F091090205
S11305A0E15CFD4F808182B9CA30D10574F49E01AB
S11305B02F5F3F4FC90199230CF4019695958795B8
S11305C09701281B390BC90102C08C2D9D2DC832FF
S11305D0D10514F0CE014E97909307028093060242
S11305E0E7DE2196C233D10521F6DF91CF911F9129
S11305F00F91FF90EF90DF90CF900895CF92DF920C
S1130600EF92FF920F931F93CF93DF9384E190E0D7
S11306109093070280930602C0E0D0E003E010E06C
S11306200F2EFAE0CF2EF02DD12C0F2EF4E1EF2E69
S1130630F12CF02D8091080290910902019790937A
S1130640090280930802809108029091090299237B
S113065024F41093090200930802E0910802F09137
S11306600902E15CFD4F808182B9CA30D10574F47E
S11306709E012F5F3F4FC90199230CF40196959574
S113068087959701281B390BC90102C08C2D9D2D1C
S1130690CA35D1051CF0CE0180559109909307020B
S11306A08093060285DE2196C436D10519F6DF91C2
S11306B0CF911F910F91FF90EF90DF90CF9008950D
S11306C0AF92BF92CF92DF92EF92FF920F931F935C
S11306D0CF93DF93E1E6F0E080E8808381E08083DC
S11306E0E1E8F0E0808182608083F8948FEF81B943
S11306F09FE894B987B980EF8AB910920A0183E020
S11307006CDD60E081E03EDDE89AE9E6F0E08081BE
S113071082608083808181608083E99A808188609F
S1130720808380818B7F8083EA9A8081806280834A
S113073080818F7E8083EB9A808180688083808132
S113074080648083EAE7F0E0808180688083808130
S113075088608083ECE7F0E0808180648083789413
S113076084B5836884BD85B5836085BD80E687BD17
S11307703EDE6FE472E084E592E0D1DD1092530234
S11307808DE085B9109252020F2EFDE0DF2EF02D80
S113079004E010E0E12C6894FF24F2F8CAE7D0E00A
S11307A06894CC24C1F80F2EF3E0BF2EF02D809175
S11307B05202823009F481C08A3009F4E9C08130E0
S11307C0B1F7F0924C02E0924B0210924502109263
S11307D044022AC08091470290914802892B21F457
S11307E088818064888320C020914D0230914E021C
S11307F080914B0290914C022817390740F4809164
S11308004D0290914E0290934C0280934B021092B1
S11308104802109247028091440290914502019649
S113082090934502809344024899D4CF8091440226
S113083090914502181619060CF03CC080914B02A9
S113084090914C02833A934080F480914B029091B2
S11308504C028D3B924058F480914B0290914C0293
S11308608D32914030F4AB2C06C0A12C04C0AC2CCA
S113087002C0AA24A39486E592E058DDE0915602D2
S1130880F0915702A08246E552E06FE472E084E5FD
S113089092E05ADD61E080E03ADD8AE092E0CCDC6F
S11308A061E08BE034DD809144029091450265E083
S11308B070E0D1DC109252027ACF1092520285B1CC
S11308C08F6085B989E190E073DD48E552E06FE41B
S11308D072E084E592E056DD8091580290915902CD
S11308E0FC01A08002D2A11007C060E08AE00FDD05
S11308F085E192E0A1DC1DC0F2E0AF1207C060E028
S11309008AE005DD8BE192E097DC13C021E0A212BE
S113091007C060E08AE0FBDC81E292E08DDC09C084
S113092083E0A81206C060E08AE0F1DC87E292E08E
S113093083DC20915302A21649F1EA2DF0E030E065
S1130940C901019683709078992324F401978C6FE0
S11309509F6F0196E817F90721F4EFDDA092530287
S113096015C0C9010296B80101D1E817F90721F4AD
S113097045DEA09253020AC0C9010396B801F6D01D
S1130980E817F90719F481DDA0925302D5B80FCF07
S11309901092520285B18F6085B960E081E0F2DB8C
S11309A08CE292E049DC88EB9BE002DD80E090E0A1
S11309B0DF91CF911F910F91FF90EF90DF90CF9037
S11309C0BF90AF9008951F920F920FB60F9211240B
S11309D02F933F938F939F938091780090E090930F
S11309E04E0280934D029091790020914D023091F6
S11309F04E02892F90E0982F8827820F931F90939F
S1130A004E0280934D0281E090E0909348028093DF
S1130A1047029F918F913F912F910F900FBE0F909E
S1130A201F9018951F920F920FB60F9211248F9357
S1130A30489B03C081E0809352028F910F900FBEB8
S1130A400F901F9018951F920F920FB60F921124BA
S1130A508F93499903C082E0809352028F910F9043
S1130A600FBE0F901F9018951F920F920FB60F9202
S1130A70112485B18F6085B960E081E083DB80E378
S1130A8092E0DADBFFCF1F920F920FB60F92112480
S1130A900BB60F922F933F934F935F936F937F9374
S1130AA08F939F93AF93BF93EF93FF934B9B1CC084
S1130AB089E190E07DDC9091460281E08927809372
S1130AC0460295B18AE089278093510285B18F60EF
S1130AD085B985E090E06CDC8091510285B94B9931
S1130AE0FECF89E190E064DCFF91EF91BF91AF917B
S1130AF09F918F917F916F915F914F913F912F9132
S1130B000F900BBE0F900FBE0F901F9018951F9261
S1130B100F920FB60F9211240BB60F922F933F939F
S1130B204F935F936F937F938F939F93AF93BF93F1
S1130B30EF93FF9360E081E025DB87E392E07CDBC9
S1130B4088EB9BE035DCFF91EF91BF91AF919F91D2
S1130B508F917F916F915F914F913F912F910F9062
S1130B600BBE0F900FBE0F901F90189597FB072E8A
S1130B7016F4009406D077FD08D00BD007FC05D0FE
S1130B803EF4909581959F4F0895709561957F4FA0
S1130B900895AA1BBB1B51E107C0AA1FBB1FA617C0
S1130BA0B70710F0A61BB70B881F991F5A95A9F712
S1130BB080959095BC01CD0108950F931F93CF9319
S1130BC0DF938230910510F482E090E0E0915C02C2
S1130BD0F0915D0220E030E0A0E0B0E0309719F140
S1130BE0408151810281138148175907C8F0841745
S1130BF0950769F4109731F012960C931297139697
S1130C001C9327C000935C0210935D0222C021153F
S1130C10310519F04217530718F49A01BD01EF0189
S1130C20DF01F801DBCF21153105F9F0281B390B61
S1130C302430310580F48A819B816115710521F08E
S1130C40FB019383828304C090935D0280935C02D2
S1130C50FE01329644C0FE01E20FF31F819391938B
S1130C6022503109398328833AC020915A023091A5
S1130C705B02232B41F42091020230910302309352
S1130C805B0220935A022091000230910102211547
S1130C90310541F42DB73EB740910402509105024D
S1130CA0241B350BE0915A02F0915B02E217F30723
S1130CB0A0F42E1B3F0B2817390778F0AC014E5FC8
S1130CC05F4F2417350748F04E0F5F1F50935B02A8
S1130CD040935A028193919302C0E0E0F0E0CF0187
S1130CE0DF91CF911F910F910895CF93DF930097D8
S1130CF009F481C0FC01329713821282A0915C0234
S1130D00B0915D02109781F420813181820F931F8D
S1130D1020915A0230915B022817390751F5F0935C
S1130D205B02E0935A0267C0ED0120E030E0CE1789
S1130D30DF0740F44A815B819E0141155105F1F0C2
S1130D40EA01F5CFD383C28340815181840F951F7B
S1130D50C817D90759F488819981840F951F029681
S1130D60918380838A819B819383828321153105BA
S1130D7029F4F0935D02E0935C023DC0E901FB833A
S1130D80EA8349915991C40FD51FEC17FD0761F40B
S1130D9080819181840F951F0296E901998388834C
S1130DA0828193819B838A83E0E0F0E012968D91A7
S1130DB09C911397009719F0FD01DC01F7CF8D91F9
S1130DC09C9111979D012E5F3F4F820F931F20919D
S1130DD05A0230915B022817390769F4309729F4D5
S1130DE010925D0210925C0202C013821282B093D0
S1130DF05B02A0935A02DF91CF910895F894FFCF3C
S1130E0000005E0220001400300056616C20436F25
S1130E10756E743A00424C41434B0057484954455F
S1130E2000535445454C00414C554D00454E44003B
S1130E304B494C4C454400495352204241440030F4
S1070E400628050077
S9030000FC
