S01800004C616235576F726B696E67436F7079312E737265631B
S113000071C00000B8C20000C7C20000D6C2000020
S1130010E3C2000086C0000084C0000082C000006B
S113002080C000007EC000007CC000007AC00000D8
S113003078C0000076C0000074C0000072C00000E8
S113004070C000006EC000006CC000006AC00000F8
S113005068C0000066C0000064C0000062C0000008
S113006060C000005EC000005CC000005AC0000018
S113007058C0000051C2000054C0000052C000002B
S113008050C000004EC000004CC000004AC0000038
S113009048C0000046C0000044C0000042C0000048
S11300A040C000003EC000003CC000003AC0000058
S11300B038C0000036C0000034C0000032C0000068
S11300C030C000002EC000002CC000002AC0000078
S11300D028C0000026C0000024C0000022C0000088
S11300E020C0000011241FBECFEFD1E2DEBFCDBF80
S11300F000E00CBF12E0A0E0B2E0E0E1F7E000E0D5
S11301000BBF02C007900D92A832B107D9F722E0C5
S1130110A8E2B2E001C01D92A333B207E1F71ED1F9
S1130120F5C29EC287B1807F87B9459A469882E01E
S11301308A95F1F700C0479A92E09A95F1F700C0CA
S113014086B18295807F92E09A95F1F700C0479836
S113015095E09A95F1F70000479A92E09A95F1F7A5
S113016000C096B192E09A95F1F700C0479895E0E7
S11301709A95F1F700008823F4F2459887B18F60CF
S113018087B90895282F22952F708F70611102C0AE
S1130190469801C0469A92E09A95F1F700C0479AB2
S11301A098B1907F922B98B995E09A95F1F7000059
S11301B0479895E09A95F1F70000479A98B1907F97
S11301C0892B88B985E08A95F1F70000479895E076
S11301D09A95F1F70000A6CF0895CF93C82F2FEF7B
S11301E086E791E0215080409040E1F700C0000094
S11301F087B18F6087B93F9A3E9A3D9A88B1807FD4
S113020088B947984598469800C000C00000479AAE
S1130210419A25E02A95F1F70000479885E08A95F0
S1130220F1F700007FDF60E08C2F8C60ABDF60E0D3
S113023088E2A8DFCF910895CF93DF93EC01888102
S1130240882331F0219661E09DDF89918111FBCFF4
S1130250DF91CF910895EF92FF920F931F93CF9365
S1130260DF9300D01F921F92CDB7DEB77B01FE0152
S1130270319625E0DF011D922A95E9F7009751F0A8
S113028035962AE030E0B9011AD28293862F972F4F
S11302900097C9F7BFEFEB16FB0669F4898181115A
S11302A01DC0FE01329600E010E00F5F1F4F8191E8
S11302B08823D9F30FC005E010E00E191F090AC006
S11302C0F80181918F0161E0805D5CDF0E151F05EF
S11302D0B9F711C0053011051CF00DC000E010E0A5
S11302E081E090E08C0F9D1F080F191F7E0196E09E
S11302F0E90EF11CE5CF0F900F900F900F900F9027
S1130300DF91CF911F910F91FF90EF900895883264
S113031028F46111806460E0806834CF0895AC01F2
S1130320E1E8F0E090819860908388EE93E0909308
S1130330890080938800109285001092840020E048
S113034030E005C0B19BFECFB19A2F5F3F4F241719
S113035035071CF4B19BF6CFF7CF08950F931F9385
S1130360CF93DF93E1E6F0E080E8808381E080834F
S1130370E1E8F0E0808182608083F8948FEF81B9B6
S11303809FE894B987B980EF8AB910920A0183E093
S113039024DF60E081E0F6DEE89AE9E6F0E08081BF
S11303A082608083808181608083E99A8081886013
S11303B0808380818B7F8083EA9A808180628083BE
S11303C080818F7E8083EB9A8081806880838081A6
S11303D080648083EAE7F0E08081806880838081A4
S11303E088608083ECE7F0E0808180648083789487
S11303F084B5836884BD85B5836085BD80E487BD8D
S11304008DE085B91092320200E014E0CAE7D0E032
S113041080913202823009F467C08A3009F467C0DF
S11304208130B1F710932E0200932D02109229020D
S1130430109228022AC080912B0290912C02892BC1
S113044021F488818064888320C020912F02309118
S1130450300280912D0290912E022817390740F422
S113046080912F029091300290932E0280932D025E
S113047010922C0210922B02809128029091290252
S1130480019690932902809328024899D4CF8091B1
S1130490280290912902181619061CF560E081E0E3
S11304A071DE60E080E033DF80E092E0C5DE60E092
S11304B08AE02DDF80912D0290912E0265E070E09C
S11304C0CADE61E080E023DF89E092E0B5DE61E02E
S11304D08BE01DDF809128029091290265E070E095
S11304E0BADE1092320294CF1092320291CF10925F
S11304F0320285B18F6085B960E081E043DE84E13A
S113050092E09ADE88EB9BE00ADF80E090E0DF91E6
S1130510CF911F910F9108951F920F920FB60F92D2
S113052011242F933F938F939F938091780090E0B1
S11305309093300280932F029091790020912F02A2
S113054030913002892F90E0982F8827820F931FD3
S11305509093300280932F0281E090E090932C02DC
S113056080932B029F918F913F912F910F900FBEFB
S11305700F901F9018951F920F920FB60F9211248F
S11305808F93489B03C081E0809332028F910F9038
S11305900FBE0F901F9018951F920F920FB60F92D7
S11305A011248F93499903C082E0809332028F9182
S11305B00F900FBE0F901F9018951F920F920FB6B9
S11305C00F92112485B18F6085B960E081E0DADD96
S11305D088E192E031DEFFCF1F920F920FB60F92A7
S11305E011240BB60F922F933F934F935F936F9306
S11305F07F938F939F93AF93BF93EF93FF934B9B03
S11306001CC089E190E08BDE90912A0281E0892769
S113061080932A0295B18AE089278093310285B1BB
S11306208F6085B985E090E07ADE8091310285B9EA
S11306304B99FECF89E190E072DEFF91EF91BF917B
S1130640AF919F918F917F916F915F914F913F9166
S11306502F910F900BBE0F900FBE0F901F90189507
S11306601F920F920FB60F9211240BB60F922F9375
S11306703F934F935F936F937F938F939F93AF9326
S1130680BF93EF93FF9360E081E07CDD8FE192E024
S1130690D3DD88EB9BE043DEFF91EF91BF91AF91F7
S11306A09F918F917F916F915F914F913F912F9186
S11306B00F900BBE0F900FBE0F901F90189597FBD5
S11306C0072E16F4009406D077FD08D00BD007FC53
S11306D005D03EF4909581959F4F0895709561954E
S11306E07F4F0895AA1BBB1B51E107C0AA1FBB1F64
S11306F0A617B70710F0A61BB70B881F991F5A95AA
S1130700A9F780959095BC01CD010895F894FFCF89
S11307104D61742056616C3A0056616C20436F75CC
S11307206E743A00454E44004B494C4C45440049D4
S10B0730535220424144000031
S9030000FC
