:1000000071C0000055C5000064C5000073C5000044
:1000100080C5000086C0000084C0000082C00000CF
:1000200080C000007EC000007CC000007AC00000DC
:1000300078C0000076C0000074C0000072C00000EC
:1000400070C000006EC000006CC000006AC00000FC
:1000500068C0000066C0000064C0000062C000000C
:1000600060C000005EC000005CC000005AC000001C
:1000700058C00000EEC4000054C0000052C0000090
:1000800050C000004EC000004CC000004AC000003C
:1000900048C0000046C0000044C0000042C000004C
:1000A00040C000003EC000003CC000003AC000005C
:1000B00038C0000036C0000034C0000032C000006C
:1000C00030C000002EC000002CC000002AC000007C
:1000D00028C0000026C0000024C0000022C000008C
:1000E00020C0000011241FBECFEFD1E2DEBFCDBF84
:1000F00000E00CBF12E0A0E0B2E0E6E7FEE000E0C6
:100100000BBF02C007900D92AC34B107D9F722E0C3
:10011000ACE4B2E001C01D92AA36B207E1F7D0D23A
:10012000A8C630C587B1807F87B9459A469882E0D6
:100130008A95F1F700C0479A92E09A95F1F700C0CE
:1001400086B18295807F92E09A95F1F700C047983A
:1001500095E09A95F1F70000479A92E09A95F1F7A9
:1001600000C096B192E09A95F1F700C0479895E0EB
:100170009A95F1F700008823F4F2459887B18F60D3
:1001800087B90895282F22952F708F70611102C0B2
:10019000469801C0469A92E09A95F1F700C0479AB6
:1001A00098B1907F922B98B995E09A95F1F700005D
:1001B000479895E09A95F1F70000479A98B1907F9B
:1001C000892B88B985E08A95F1F70000479895E07A
:1001D0009A95F1F70000A6CF0895CF93C82F2FEF7F
:1001E00086E791E0215080409040E1F700C0000098
:1001F00087B18F6087B93F9A3E9A3D9A88B1807FD8
:1002000088B947984598469800C000C00000479AB2
:10021000419A25E02A95F1F70000479885E08A95F4
:10022000F1F700007FDF60E08C2F8C60ABDF60E0D7
:1002300088E2A8DFCF910895CF93DF93EC01888106
:10024000882331F0219661E09DDF89918111FBCFF8
:10025000DF91CF910895EF92FF920F931F93CF9369
:10026000DF9300D01F921F92CDB7DEB77B01FE0156
:10027000319625E0DF011D922A95E9F7009751F0AC
:1002800035962AE030E0B901ACD48293862F972FBF
:100290000097C9F7BFEFEB16FB0669F4898181115E
:1002A0001DC0FE01329600E010E00F5F1F4F8191EC
:1002B0008823D9F30FC005E010E00E191F090AC00A
:1002C000F80181918F0161E0805D5CDF0E151F05F3
:1002D000B9F711C0053011051CF00DC000E010E0A9
:1002E00081E090E08C0F9D1F080F191F7E0196E0A2
:1002F000E90EF11CE5CF0F900F900F900F900F902B
:10030000DF91CF911F910F91FF90EF900895883268
:1003100028F46111806460E0806834CF0895FC01A6
:1003200011821082FB01118210820895CF93DF9316
:10033000EC0184E090E07CD499838883FC011382F3
:100340001282DF91CF910895DB01ED91FC913097FE
:1003500061F0DA018D919C911197938382838D9145
:100360009C91FB01918380830895DA012D913C914A
:100370001197FC01318320838D919C91DB018D933A
:100380009C930895FC0180819181DA018D939C9367
:10039000A081B181109741F012968D919C91139795
:1003A00091838083892B19F4FB01118210820895B7
:1003B000AC01E1E8F0E090819860908388EE93E0F2
:1003C0009093890080938800109285001092840099
:1003D00020E030E005C0B19BFECFB19A2F5F3F4FC8
:1003E000241735071CF4B19BF6CFF7CF0895CF93B0
:1003F000DF93C9E1D0E08091080290910902019653
:10040000909309028093080280910802909109025A
:10041000049724F01092090210920802E091080259
:10042000F0910902E95BFD4F808182B984E190E09F
:10043000BFDF219701F78091090188231CF5C9E0EE
:10044000D1E08091080290910902019690930902EF
:10045000809308028091080290910902049724F089
:100460001092090210920802E0910802F09109022C
:10047000E95BFD4F808182B984E190E099DF88815A
:100480008823FCF2DF91CF910895EF92FF920F93B2
:100490001F93CF93DF9384E190E0909307028093C2
:1004A0000602C0E0D0E00F2EFAE0EF2EF02DF12C86
:1004B00004E110E080910802909109020196909366
:1004C0000902809308028091080290910902049722
:1004D00024F01092090210920802E0910802F091B3
:1004E0000902E95BFD4F808182B9CA30D10574F4FD
:1004F0009E012F5F3F4FC90199230CF401969595FA
:1005000087959801281B390BC90102C08E2D9F2D9C
:10051000C832D10514F0CE014E9790930702809314
:10052000060246DF2196C233D10521F6DF91CF9135
:100530001F910F91FF90EF900895CF92DF92EF926D
:10054000FF920F931F93CF93DF9384E190E09093FA
:10055000070280930602C0E0D0E003E010E00F2E17
:10056000FAE0CF2EF02DD12C0F2EF4E1EF2EF12C4E
:10057000F02D809108029091090201979093090251
:10058000809308028091080290910902992324F433
:100590001093090200930802E0910802F091090209
:1005A000E95BFD4F808182B9CA30D10574F49E01A8
:1005B0002F5F3F4FC90199230CF4019695958795BC
:1005C0009701281B390BC90102C08C2D9D2DC83203
:1005D000D10514F0CE014E97909307028093060246
:1005E000E7DE2196C233D10521F6DF91CF911F912D
:1005F0000F91FF90EF90DF90CF900895CF92DF9210
:10060000EF92FF920F931F93CF93DF9384E190E0DB
:100610009093070280930602C0E0D0E003E010E070
:100620000F2EFAE0CF2EF02DD12C0F2EF4E1EF2E6D
:10063000F12CF02D8091080290910902019790937E
:10064000090280930802809108029091090299237F
:1006500024F41093090200930802E0910802F0913B
:100660000902E95BFD4F808182B9CA30D10574F47B
:100670009E012F5F3F4FC90199230CF40196959578
:1006800087959701281B390BC90102C08C2D9D2D20
:10069000CA35D1051CF0CE0180559109909307020F
:1006A0008093060285DE2196C436D10519F6DF91C6
:1006B000CF911F910F91FF90EF90DF90CF90089511
:1006C0007F928F929F92AF92BF92CF92DF92EF92E2
:1006D000FF920F931F93CF93DF93E1E6F0E080E862
:1006E000808381E08083E1E8F0E080818260808324
:1006F000F8948FEF81B99FE894B987B980EF8AB9F0
:1007000010920A0183E069DD60E081E03BDDE89A58
:10071000E9E6F0E08081826080838081816080836F
:10072000E99A80818860808380818B7F8083EA9AC8
:1007300080818062808380818F7E8083EB9A80813C
:1007400080688083808180648083EAE7F0E0808134
:1007500080688083808188608083ECE7F0E080811E
:1007600080648083789484B5836884BD85B5836014
:1007700085BD80E687BD3BDE6BE572E080E692E0FA
:10078000CEDD10925F028DE085B910925E020F2ED1
:10079000FFE0AF2EF02D0F2EFDE0BF2EF02DE12C4F
:1007A0006894FF24F2F8CAE7D0E00F2EFCE4CF2EC5
:1007B000F2E0DF2EF02D6894992491F80F2EF3E0EB
:1007C0008F2EF02D04E010E080915E02823009F45B
:1007D0009BC018F48130C1F0F7CF833021F08A300C
:1007E00009F419C1F1CFA5B860E081E0CBDC8BE062
:1007F00092E022DD80910A02813019F4B5B860E000
:10080000C1DC10925E02E0CFF0925802E0925702F3
:1008100010925202109251022AC08091530290917C
:100820005402892B21F488818064888320C0209120
:10083000590230915A02809157029091580228171C
:10084000390740F48091590290915A0290935802CE
:1008500080935702109254021092530280915102D9
:1008600090915202019690935202809351024899BE
:10087000D4CF8091510290915202181619060CF0B3
:1008800040C08091570290915802833A934080F47F
:1008900080915702909158028D3B924058F480917C
:1008A0005702909158028D32914030F4782C06C056
:1008B000712C04C0792C02C07724739482E692E0F4
:1008C00035DDE0916202F0916302708242E652E00F
:1008D0006BE572E080E692E037DDF60184818F5FA0
:1008E000848361E080E013DD82E192E0A5DC61E0D9
:1008F0008BE00DDD809151029091520265E070E035
:10090000AADC10925E0260CF10925E0285B18F6009
:1009100085B989E190E04CDD44E652E06BE572E098
:1009200080E692E02FDD8091640290916502FC01E7
:10093000708016D271100EC060E08AE0E8DC8DE1B4
:1009400092E07ADCF60184818150848380818F5F1C
:10095000808332C0F2E07F120EC060E08AE0D7DC14
:1009600083E292E069DCF601848181508483828194
:100970008F5F828321C0F1E07F120EC060E08AE0C9
:10098000C6DC89E292E058DCF601848181508483E0
:1009900081818F5F818310C0F3E07F120DC060E022
:1009A0008AE0B5DC8FE292E047DCF6018481815079
:1009B000848383818F5F838320915F02721649F164
:1009C000E72DF0E030E0C90101968370907899231B
:1009D00024F401978C6F9F6F0196E817F90721F4B3
:1009E000ACDD70925F0215C0C9010296B801F9D062
:1009F000E817F90721F402DE70925F020AC0C9010C
:100A00000396B801EED0E817F90719F43EDD7092AD
:100A10005F02B5B8D9CE10925E0285B18F6085B9FC
:100A200060E081E0AFDB84E392E006DC88EB9BE0F2
:100A3000BFDC80E090E0DF91CF911F910F91FF909C
:100A4000EF90DF90CF90BF90AF909F908F907F906E
:100A500008951F920F920FB60F9211242F933F9378
:100A60008F939F938091780090E090935A028093A7
:100A70005902909179002091590230915A02892FA0
:100A800090E0982F8827820F931F90935A028093AB
:100A9000590281E090E090935402809353029F9119
:100AA0008F913F912F910F900FBE0F901F9018952F
:100AB0001F920F920FB60F9211248F93489B03C081
:100AC00081E080935E028F910F900FBE0F901F9078
:100AD00018951F920F920FB60F9211248F93499978
:100AE00003C082E080935E028F910F900FBE0F9043
:100AF0001F9018951F920F920FB60F92112485B177
:100B00008F6085B960E081E03DDB88E392E094DBB3
:100B1000FFCF1F920F920FB60F9211240BB60F92B8
:100B20002F933F934F935F936F937F938F939F93F5
:100B3000AF93BF93EF93FF934B9B11C089E190E07C
:100B400037DC90910A0281E0892780930A0283E0D2
:100B500080935E024B99FECF89E190E029DCFF9102
:100B6000EF91BF91AF919F918F917F916F915F9125
:100B70004F913F912F910F900BBE0F900FBE0F9092
:100B80001F9018951F920F920FB60F9211240BB65B
:100B90000F922F933F934F935F936F937F938F9316
:100BA0009F93AF93BF93EF93FF9360E081E0EADA06
:100BB0008FE392E041DB88EB9BE0FADBFF91EF9162
:100BC000BF91AF919F918F917F916F915F914F9165
:100BD0003F912F910F900BBE0F900FBE0F901F9063
:100BE000189597FB072E16F4009406D077FD08D0D1
:100BF0000BD007FC05D03EF4909581959F4F08954A
:100C0000709561957F4F0895AA1BBB1B51E107C0EA
:100C1000AA1FBB1FA617B70710F0A61BB70B881F8C
:100C2000991F5A95A9F780959095BC01CD0108951B
:100C30000F931F93CF93DF938230910510F482E0DE
:100C400090E0E0916802F091690220E030E0A0E0DD
:100C5000B0E0309719F1408151810281138148172A
:100C60005907C8F08417950769F4109731F0129668
:100C70000C93129713961C9327C00093680210934D
:100C8000690222C02115310519F04217530718F4E3
:100C90009A01BD01EF01DF01F801DBCF211531051C
:100CA000F9F0281B390B2430310580F48A819B81AF
:100CB0006115710521F0FB019383828304C0909339
:100CC000690280936802FE01329644C0FE01E20F81
:100CD000F31F8193919322503109398328833AC0BD
:100CE0002091660230916702232B41F42091020289
:100CF0003091030230936702209366022091000234
:100D0000309101022115310541F42DB73EB74091D4
:100D1000040250910502241B350BE0916602F0910C
:100D20006702E217F307A0F42E1B3F0B28173907C1
:100D300078F0AC014E5F5F4F2417350748F04E0F37
:100D40005F1F50936702409366028193919302C0A4
:100D5000E0E0F0E0CF01DF91CF911F910F91089576
:100D6000CF93DF93009709F481C0FC01329713827F
:100D70001282A0916802B0916902109781F42081DB
:100D80003181820F931F20916602309167022817EC
:100D9000390751F5F0936702E093660267C0ED01F1
:100DA00020E030E0CE17DF0740F44A815B819E01EE
:100DB00041155105F1F0EA01F5CFD383C28340819B
:100DC0005181840F951FC817D90759F488819981DB
:100DD000840F951F0296918380838A819B819383E0
:100DE00082832115310529F4F0936902E0936802AA
:100DF0003DC0E901FB83EA8349915991C40FD51F96
:100E0000EC17FD0761F480819181840F951F029694
:100E1000E90199838883828193819B838A83E0E0BF
:100E2000F0E012968D919C911397009719F0FD01B7
:100E3000DC01F7CF8D919C9111979D012E5F3F4F63
:100E4000820F931F2091660230916702281739079D
:100E500069F4309729F4109269021092680202C076
:100E600013821282B0936702A0936602DF91CF9142
:060E70000895F894FFCF85
:100E760000006A022000140030000150415553451D
:100E8600440056616C20436F756E743A00424C41C3
:100E9600434B00574849544500535445454C00417F
:100EA6004C554D00454E44004B494C4C4544004979
:0C0EB60053522042414400300628050041
:00000001FF
