:1000000071C000003EC600005BC6000077C600005D
:10001000B6C6000086C0000084C0000082C0000098
:1000200080C000007EC000007CC000007AC00000DC
:1000300078C0000076C0000074C0000072C00000EC
:1000400070C000006EC000006CC000006AC00000FC
:1000500068C0000066C0000064C0000062C000000C
:1000600060C000005EC000005CC000005AC000001C
:1000700058C00000D7C5000054C0000052C00000A6
:10008000B7C600004EC000004CC000004AC00000CF
:1000900048C0000046C0000044C0000042C000004C
:1000A00040C000003EC000003CC000003AC000005C
:1000B00038C0000036C0000034C0000032C000006C
:1000C00030C000002EC000002CC000002AC000007C
:1000D00028C0000026C0000024C0000022C000008C
:1000E00020C0000011241FBECFEFD1E2DEBFCDBF84
:1000F00000E00CBF12E0A0E0B2E0E2E1F1E100E0DC
:100100000BBF02C007900D92A636B107D9F722E0C7
:10011000A6E6B2E001C01D92AD38B207E1F7B8D251
:10012000F6C77EC687B1807F87B9459A469882E038
:100130008A95F1F700C0479A92E09A95F1F700C0CE
:1001400086B18295807F92E09A95F1F700C047983A
:1001500095E09A95F1F70000479A92E09A95F1F7A9
:1001600000C096B192E09A95F1F700C0479895E0EB
:100170009A95F1F700008823F4F2459887B18F60D3
:1001800087B90895282F22952F708F70611102C0B2
:10019000469801C0469A92E09A95F1F700C0479AB6
:1001A00098B1907F922B98B995E09A95F1F700005D
:1001B000479895E09A95F1F70000479A98B1907F9B
:1001C000892B88B985E08A95F1F70000479895E07A
:1001D0009A95F1F70000A6CF0895CF93C82F2FEF7F
:1001E00086E791E0215080409040E1F700C0000098
:1001F00087B18F6087B93F9A3E9A3D9A88B1807FD8
:1002000088B947984598469800C000C00000479AB2
:10021000419A25E02A95F1F70000479885E08A95F4
:10022000F1F700007FDF60E08C2F8C60ABDF60E0D7
:1002300088E2A8DFCF910895CF93DF93EC01888106
:10024000882331F0219661E09DDF89918111FBCFF8
:10025000DF91CF910895EF92FF920F931F93CF9369
:10026000DF9300D01F921F92CDB7DEB77B01FE0156
:10027000319625E0DF011D922A95E9F7009751F0AC
:1002800035962AE030E0B901FAD58293862F972F70
:100290000097C9F7BFEFEB16FB0669F4898181115E
:1002A0001DC0FE01329600E010E00F5F1F4F8191EC
:1002B0008823D9F30FC005E010E00E191F090AC00A
:1002C000F80181918F0161E0805D5CDF0E151F05F3
:1002D000B9F711C0053011051CF00DC000E010E0A9
:1002E00081E090E08C0F9D1F080F191F7E0196E0A2
:1002F000E90EF11CE5CF0F900F900F900F900F902B
:10030000DF91CF911F910F91FF90EF900895883268
:1003100028F46111806460E0806834CF0895FC01A6
:1003200011821082FB01118210820895CF93DF9316
:10033000EC0184E090E0CAD599838883FC011382A4
:100340001282DF91CF910895DB01ED91FC913097FE
:1003500061F0DA018D919C911197938382838D9145
:100360009C91FB01918380830895DA012D913C914A
:100370001197FC01318320838D919C91DB018D933A
:100380009C930895FC0180819181DA018D939C9367
:10039000A081B181109741F012968D919C91139795
:1003A00091838083892B19F4FB01118210820895B7
:1003B000AC01E1E8F0E090819860908384E690E001
:1003C0009093890080938800109285001092840099
:1003D00020E030E005C0B19BFECFB19A2F5F3F4FC8
:1003E000241735071CF4B19BF6CFF7CF0895CF92B1
:1003F000DF92EF92FF920F931F93CF93DF938C01C5
:100400006130710509F04FC0C9E4D2E00F2EF2E669
:10041000EF2EF2E0FF2EF02D0F2EF3E0CF2ED12C99
:10042000F02D01301105A1F480910802909109028C
:10043000019790930902809308028091080290919D
:1004400009029923C4F4D0920902C092080213C091
:10045000809108029091090201969093090280937D
:1004600008028091080290910902049724F01092EA
:10047000090210920802E0910802F0910902EE5977
:10048000FD4F808182B9899190E09093840280939E
:10049000830280918302909184028ADFEC16FD062C
:1004A00009F0BFCF4EC0C2E6D2E00F2EF9E4EF2E26
:1004B000F2E0FF2EF02D0F2EF3E0CF2ED12CF02DF9
:1004C00001301105A1F48091080290910902019771
:1004D000909309028093080280910802909109028A
:1004E0009923C4F4D0920902C092080213C08091EB
:1004F00008029091090201969093090280930802E4
:100500008091080290910902049724F01092090248
:1005100010920802E0910802F0910902EE59FD4F95
:10052000808182B98A9190E09093840280938302C3
:1005300080918302909184023BDFEC16FD0609F066
:10054000BFCFDF91CF911F910F91FF90EF90DF9080
:10055000CF900895CF93DF93C9E1D0E08091080256
:10056000909109020196909309028093080280916C
:10057000080290910902049724F010920902109247
:100580000802E0910802F0910902EE59FD4F8081C6
:1005900082B986E990E00CDF219701F7809109018B
:1005A00088231CF5C9E0D1E08091080290910902EE
:1005B000019690930902809308028091080290911D
:1005C0000902049724F01092090210920802E091A7
:1005D0000802F0910902EE59FD4F808182B988EC42
:1005E00090E0E6DE88818823FCF2DF91CF910895C8
:1005F00061E070E080E090E0FADE60E070E080E0D2
:1006000090E0F5CE089561E070E081E090E0EFDEEB
:1006100060E070E081E090E0EACE08950F931F93D0
:10062000CF93DF9361E070E081E090E0E0DE02E3F1
:1006300010E0C3E0D0E08091080290910902019798
:100640009093090280930802809108029091090218
:10065000992324F4D0930902C0930802E091080280
:10066000F0910902EE59FD4F808182B98091060216
:10067000909107029DDE01501109E9F660E070E0FB
:1006800081E090E0B4DEDF91CF911F910F9108954A
:10069000AF92BF92CF92DF92EF92FF920F931F9390
:1006A000CF93DF93E1E6F0E080E8808381E0808310
:1006B000E1E8F0E0808182608083F8948FEF81B977
:1006C0009FE894B987B980EF8AB910920A0183E054
:1006D00084DD60E081E056DDE89AE9E6F0E08081C3
:1006E0008260808380818E7F8083E99A80818860A8
:1006F0008083808184608083EA9A808180628083A5
:1007000080818F7E8083EB9A808180688083808166
:1007100080648083EAE7F0E0808180688083808164
:1007200088608083ECE7F0E0808180648083789447
:1007300084B5836884BD85B5836085BD80E687BD4B
:1007400009DF6CE772E081E892E0E9DD1092800257
:100750008DE085B910927F020F2EFFE0CF2EF02D95
:1007600006E612E00F2EFDE0DF2EF02DE12C68945E
:10077000FF24F2F8CAE7D0E06894BB24B1F8809176
:100780007F02823009F470C120F4813009F469C01D
:10079000F6CF833021F0843009F4E8C1F0CFC5B83A
:1007A00060E081E0EFDC8BE092E046DD60E080E03D
:1007B000AEDD8BE092E040DD60E087E0A8DD8CE11B
:1007C00092E03ADD60E089E0A2DDF801808162E03C
:1007D00070E090E040DD60E08CE099DD82E192E045
:1007E0002BDD60E08EE093DDF801818162E070E056
:1007F00090E031DD61E087E08ADD85E192E01CDD9B
:1008000061E089E084DDF801828162E070E090E0DF
:1008100022DD61E08CE07BDD88E192E00DDD61E0CE
:100820008EE075DDF801838162E070E090E013DD19
:1008300061E080E06CDD8BE192E0FEDC61E083E072
:1008400066DDF801848162E070E090E004DD809173
:100850000A02813019F4D5B860E094DC10927F026E
:100860008ECF10927F02F0927902E092780210927D
:100870007302109272022AC08091740290917502E4
:10088000892B21F488818064888320C020917A029A
:1008900030917B0280917802909179022817390774
:1008A00040F480917A0290917B0290937902809338
:1008B00078021092750210927402809172029091E7
:1008C0007302019690937302809372024999D4CF78
:1008D0008091720290917302181619060CF0BFC035
:1008E0008091780290917902873F934008F0B7C0D9
:1008F00080917802909179028A3A934018F160E0F1
:1009000081E040DC60E080E002DD8FE192E094DC99
:1009100060E089E0FCDC61E070E080E090E09BDC7E
:1009200061E080E0F4DC89E292E086DC61E089E06D
:10093000EEDC809178029091790264E070E08BDCCB
:10094000A12C7AC080917802909179028D3B9240DF
:1009500018F160E081E016DC60E080E0D8DC8FE137
:1009600092E06ADC60E089E0D2DC61E070E082E085
:1009700090E071DC61E080E0CADC89E292E05CDC5E
:1009800061E089E0C4DC809178029091790264E0B2
:1009900070E061DCAB2C50C08091780290917902BC
:1009A000893C910520F160E081E0ECDB60E080E0D3
:1009B000AEDC8FE192E040DC60E089E0A8DC61E041
:1009C00070E081E090E047DC61E080E0A0DC89E25B
:1009D00092E032DC61E089E09ADC809178029091CB
:1009E000790264E070E037DCAA24A39425C060E0BB
:1009F00081E0C8DB60E080E08ADC8FE192E01CDC13
:100A000060E089E084DC61E070E083E090E023DC7A
:100A100061E080E07CDC89E292E00EDC61E089E06C
:100A200076DC809178029091790264E070E013DCCA
:100A30000F2EF3E0AF2EF02D85E892E077DCE09109
:100A40008502F0918602A08245E852E06CE772E0F0
:100A500081E892E079DCF80184818F5F84831092D1
:100A60006C0210926B028BCE10927F0285B18F6068
:100A700085B984E690E09CDC47E852E06CE772E0E0
:100A800081E892E07FDC8091870290918802FC01EE
:100A9000A080B4D2A11008C0F80184818150848361
:100AA00080818F5F808320C0F2E0AF1208C0F80120
:100AB00084818150848382818F5F828315C0F1E0BD
:100AC000AF1208C0F80184818150848381818F5FD7
:100AD00081830AC0F3E0AF1207C0F801848181501E
:100AE000848383818F5F838320918002A21659F1D2
:100AF000EA2DF0E030E0C9010196837090789923E7
:100B000024F401978C6F9F6F0196E817F90721F481
:100B10007ADDA092800217C0C901029664E070E0FD
:100B2000AED1E817F90721F479DDA09280020BC05D
:100B3000C901039664E070E0A2D1E817F90719F43F
:100B400057DDA0928002D5B889E190E031DC1092A7
:100B50006E0210926D028091700290917102019765
:100B600009F00DCEF8018481811109CE88E893E166
:100B70001FDC85B18F6085B960E081E003DB60E058
:100B800080E0C5DB83E392E057DB61E080E0BFDB20
:100B90008AE392E051DB60E087E0B9DB8CE192E030
:100BA0004BDB60E089E0B3DBC6E6D2E0888162E03F
:100BB00070E090E050DB60E08CE0A9DB82E192E045
:100BC0003BDB60E08EE0A3DB898162E070E090E0D7
:100BD00042DB61E087E09BDB85E192E02DDB61E0B9
:100BE00089E095DB8A8162E070E090E034DB61E0CF
:100BF0008CE08DDB88E192E01FDB61E08EE087DB3B
:100C00008B8162E070E090E026DB80E090E0DF9195
:100C1000CF911F910F91FF90EF90DF90CF90BF90F9
:100C2000AF9008951F920F920FB60F9211242F9339
:100C30003F938F939F938091780090E090937B02F5
:100C400080937A029091790020917A0230917B0210
:100C5000892F90E0982F8827820F931F90937B0213
:100C600080937A0281E090E0909375028093740201
:100C70009F918F913F912F910F900FBE0F901F90DA
:100C800018951F920F920FB60F9211248F939F9376
:100C900049990FC080916D0290916E02892B49F4A1
:100CA00081E090E090936E0280936D0282E08093E9
:100CB0007F029F918F910F900FBE0F901F901895FC
:100CC0001F920F920FB60F9211248F939F93489B00
:100CD0000EC080916B0290916C02892B41F481E0EF
:100CE00090E090936C0280936B0280937F029F91BF
:100CF0008F910F900FBE0F901F9018951F920F921B
:100D00000FB60F9211240BB60F928F939F93AF9350
:100D1000BF93EF93FF9380916F02811123C01092D4
:100D200071021092700281E080936F02E1E9F0E0BD
:100D300010821092900010821092950010929400F0
:100D40008FE995E19093990080939800C19AA1E76B
:100D5000B0E08C9182608C938081886080838081F8
:100D600085608083FF91EF91BF91AF919F918F91AB
:100D70000F900BBE0F900FBE0F901F9018951F92F3
:100D80000F920FB60F9211240BB60F922F933F9331
:100D90004F935F936F937F938F939F93AF93BF9383
:100DA000EF93FF934B9B11C08AEF90E001DB909192
:100DB0000A0281E0892780930A0283E080937F0200
:100DC0004B99FECF8AEF90E0F3DAFF91EF91BF915C
:100DD000AF919F918F917F916F915F914F913F91D3
:100DE0002F910F900BBE0F900FBE0F901F90189574
:100DF0001F920F920FB60F9211248F939F93109210
:100E0000910010926F0281E090E0909371028093C4
:100E100070029F918F910F900FBE0F901F901895A9
:100E20001F920F920FB60F9211240BB60F922F93B1
:100E30003F934F935F936F937F938F939F93AF9362
:100E4000BF93EF93FF9360E081E09CD981E492E04F
:100E5000F3D980E395E7ACDAFF91EF91BF91AF91C1
:100E60009F918F917F916F915F914F913F912F91C2
:100E70000F900BBE0F900FBE0F901F90189597FB11
:100E8000072E16F4009406D077FD08D00BD007FC8F
:100E900005D03EF4909581959F4F0895709561958A
:100EA0007F4F0895AA1BBB1B51E107C0AA1FBB1FA0
:100EB000A617B70710F0A61BB70B881F991F5A95E6
:100EC000A9F780959095BC01CD0108950F931F93CC
:100ED000CF93DF938230910510F482E090E0E091AF
:100EE0008B02F0918C0220E030E0A0E0B0E030977F
:100EF00019F1408151810281138148175907C8F0C7
:100F00008417950769F4109731F012960C93129795
:100F100013961C9327C000938B0210938C0222C05F
:100F20002115310519F04217530718F49A01BD0134
:100F3000EF01DF01F801DBCF21153105F9F0281BA6
:100F4000390B2430310580F48A819B81611571054C
:100F500021F0FB019383828304C090938C028093E1
:100F60008B02FE01329644C0FE01E20FF31F819313
:100F7000919322503109398328833AC02091890204
:100F800030918A02232B41F4209102023091030216
:100F900030938A022093890220910002309101024D
:100FA0002115310541F42DB73EB74091040250910F
:100FB0000502241B350BE0918902F0918A02E217A9
:100FC000F307A0F42E1B3F0B2817390778F0AC016C
:100FD0004E5F5F4F2417350748F04E0F5F1F509349
:100FE0008A02409389028193919302C0E0E0F0E08D
:100FF000CF01DF91CF911F910F910895CF93DF9390
:10100000009709F481C0FC01329713821282A091EB
:101010008B02B0918C02109781F420813181820F74
:10102000931F2091890230918A022817390751F5C0
:10103000F0938A02E093890267C0ED0120E030E07E
:10104000CE17DF0740F44A815B819E0141155105AF
:10105000F1F0EA01F5CFD383C28340815181840F3F
:10106000951FC817D90759F488819981840F951F56
:101070000296918380838A819B8193838283211549
:10108000310529F4F0938C02E0938B023DC0E90115
:10109000FB83EA8349915991C40FD51FEC17FD07D3
:1010A00061F480819181840F951F0296E9019983F3
:1010B0008883828193819B838A83E0E0F0E01296AB
:1010C0008D919C911397009719F0FD01DC01F7CFEA
:1010D0008D919C9111979D012E5F3F4F820F931F21
:1010E0002091890230918A022817390769F43097D4
:1010F00029F410928C0210928B0202C01382128289
:10110000B0938A02A0938902DF91CF910895F89459
:02111000FFCF0F
:1011120000008D022000320030000150415553453D
:101122004400533A00573A00413A0042423A0063BF
:101132007572206D61743A20006375722076616C5D
:101142003A200052616D70656400446F776E3A29EF
:101152000049535220424144007878777674726F86
:101162006C6864605C5854504C4844403C3834309D
:061172002C28362E2D355D
:00000001FF
