S01800004C616235576F726B696E67436F7079312E737265631B
S113000071C00000D2C50000E1C50000F0C50000C9
S113001047C6000086C0000084C0000082C0000003
S113002080C000007EC000007CC000007AC00000D8
S113003078C0000076C0000074C0000072C00000E8
S113004070C000006EC000006CC000006AC00000F8
S113005068C0000066C0000064C0000062C0000008
S113006060C000005EC000005CC000005AC0000018
S113007058C000006BC5000054C0000052C000000E
S1130080F7C500004EC000004CC000004AC000008C
S113009048C0000046C0000044C0000042C0000048
S11300A040C000003EC000003CC000003AC0000058
S11300B038C0000036C0000034C0000032C0000068
S11300C030C000002EC000002CC000002AC0000078
S11300D028C0000026C0000024C0000022C0000088
S11300E020C0000011241FBECFEFD1E2DEBFCDBF80
S11300F000E00CBF12E0A0E0B2E0E4E0F0E100E0D8
S11301000BBF02C007900D92A236B107D9F722E0C7
S1130110A2E6B2E001C01D92A538B207E1F7DCD235
S11301206FC7F7C587B1807F87B9459A469882E043
S11301308A95F1F700C0479A92E09A95F1F700C0CA
S113014086B18295807F92E09A95F1F700C0479836
S113015095E09A95F1F70000479A92E09A95F1F7A5
S113016000C096B192E09A95F1F700C0479895E0E7
S11301709A95F1F700008823F4F2459887B18F60CF
S113018087B90895282F22952F708F70611102C0AE
S1130190469801C0469A92E09A95F1F700C0479AB2
S11301A098B1907F922B98B995E09A95F1F7000059
S11301B0479895E09A95F1F70000479A98B1907F97
S11301C0892B88B985E08A95F1F70000479895E076
S11301D09A95F1F70000A6CF0895CF93C82F2FEF7B
S11301E086E791E0215080409040E1F700C0000094
S11301F087B18F6087B93F9A3E9A3D9A88B1807FD4
S113020088B947984598469800C000C00000479AAE
S1130210419A25E02A95F1F70000479885E08A95F0
S1130220F1F700007FDF60E08C2F8C60ABDF60E0D3
S113023088E2A8DFCF910895CF93DF93EC01888102
S1130240882331F0219661E09DDF89918111FBCFF4
S1130250DF91CF910895EF92FF920F931F93CF9365
S1130260DF9300D01F921F92CDB7DEB77B01FE0152
S1130270319625E0DF011D922A95E9F7009751F0A8
S113028035962AE030E0B90173D58293862F972FF3
S11302900097C9F7BFEFEB16FB0669F4898181115A
S11302A01DC0FE01329600E010E00F5F1F4F8191E8
S11302B08823D9F30FC005E010E00E191F090AC006
S11302C0F80181918F0161E0805D5CDF0E151F05EF
S11302D0B9F711C0053011051CF00DC000E010E0A5
S11302E081E090E08C0F9D1F080F191F7E0196E09E
S11302F0E90EF11CE5CF0F900F900F900F900F9027
S1130300DF91CF911F910F91FF90EF900895883264
S113031028F46111806460E0806834CF0895FC01A2
S113032011821082FB01118210820895CF93DF9312
S1130330EC0184E090E043D599838883FC01138227
S11303401282DF91CF910895DB01ED91FC913097FA
S113035061F0DA018D919C911197938382838D9141
S11303609C91FB01918380830895DA012D913C9146
S11303701197FC01318320838D919C91DB018D9336
S11303809C930895FC0180819181DA018D939C9363
S1130390A081B181109741F012968D919C91139791
S11303A091838083892B19F4FB01118210820895B3
S11303B0AC01E1E8F0E090819860908384E690E0FD
S11303C09093890080938800109285001092840095
S11303D020E030E005C0B19BFECFB19A2F5F3F4FC4
S11303E0241735071CF4B19BF6CFF7CF0895CF92AD
S11303F0DF92EF92FF920F931F93CF93DF938C01C1
S11304006130710509F061C0C5E4D2E00F2EFEE54C
S1130410EF2EF2E0FF2EF02D0F2EF3E0CF2ED12C95
S1130420F02D01301105E9F460E081E0ABDE60E01D
S113043080E06DDF8BE092E0FFDE80910802909116
S1130440090201979093090280930802809108029F
S11304509091090299230CF5D0920902C0920802E6
S11304601CC060E081E08EDE60E080E050DF8CE064
S113047092E0E2DE80910802909109020196909345
S1130480090280930802809108029091090204975E
S113049024F01092090210920802E0910802F091EF
S11304A00902E25AFD4F808182B9899190E09093CC
S11304B07C0280937B0280917B0290917C0278DFA6
S11304C0EC16FD0609F0ADCF60C0CEE5D2E00F2EEC
S11304D0F5E4EF2EF2E0FF2EF02D0F2EF3E0CF2EF9
S11304E0D12CF02D01301105E9F460E081E04ADE01
S11304F060E080E00CDF82E192E09EDE8091080201
S113050090910902019790930902809308028091C7
S113051008029091090299230CF5D0920902C09225
S113052008021CC060E081E02DDE60E080E0EFDEC8
S113053083E192E081DE80910802909109020196A4
S11305409093090280930802809108029091090215
S1130550049724F01092090210920802E091080214
S1130560F0910902E25AFD4F808182B98A9190E0AC
S113057090937C0280937B0280917B0290917C0219
S113058017DFEC16FD0609F0ADCFDF91CF911F9177
S11305900F91FF90EF90DF90CF900895CF93DF936A
S11305A0C9E1D0E0809108029091090201969093EC
S11305B0090280930802809108029091090204972D
S11305C024F01092090210920802E0910802F091BE
S11305D00902E25AFD4F808182B986E990E0E8DEA3
S11305E0219701F78091090188231CF5C9E0D1E026
S11305F080910802909109020196909309028093D8
S113060008028091080290910902049724F0109244
S1130610090210920802E0910802F0910902E25ADC
S1130620FD4F808182B988EC90E0C2DE8881882306
S1130630FCF2DF91CF91089561E070E080E090E0FA
S1130640D6DE60E070E080E090E0D1CE089561E015
S113065070E081E090E0CBDE60E070E081E090E06B
S1130660C6CE08950F931F93CF93DF9361E070E09C
S113067081E090E0BCDE02E310E0C3E0D0E08091D2
S1130680080290910902019790930902809308024D
S11306908091080290910902992324F4D0930902CD
S11306A0C0930802E0910802F0910902E25AFD4F5A
S11306B0808182B9809106029091070279DE01500F
S11306C01109E9F660E070E081E090E090DEDF91EE
S11306D0CF911F910F9108958F929F92AF92BF92E5
S11306E0CF92DF92EF92FF920F931F93CF93DF93FA
S11306F0E1E6F0E080E8808381E08083E1E8F0E0F7
S1130700808182608083F8948FEF81B99FE894B9E7
S113071087B980EF8AB910920A0183E05EDD60E058
S113072081E030DDE89AE9E6F0E080818260808350
S1130730808181608083E99A808188608083808160
S11307408B7F8083EA9A80818062808380818F7E20
S11307508083EB9A80818068808380818064808339
S1130760EAE7F0E08081806880838081886080830C
S1130770ECE7F0E0808180648083789484B58368BA
S113078084BD85B5836085BD80E687BD07DF64E7EA
S113079072E089E792E0C3DD109278028DE085B9BA
S11307A0109277020F2EFFE0AF2EF02DC2E6D2E0BA
S11307B00F2EFDE0BF2EF02DE12C6894FF24F2F8FB
S11307C00F2EFAE7CF2ED12CF02D6894992491F8AE
S11307D004E010E080917702823009F4E5C020F44F
S11307E0813009F464C0F6CF833021F0843009F4F9
S11307F04FC1F0CFA5B860E081E0C4DC8BE192E0AA
S11308001BDD60E080E083DD8BE192E015DD60E0DC
S113081087E07DDD8CE292E00FDD60E089E077DD4A
S1130820888162E070E090E016DD60E08CE06FDDCE
S113083082E292E001DD60E08EE069DD898162E0C0
S113084070E090E008DD61E087E061DD85E292E040
S1130850F3DC61E089E05BDD8A8162E070E090E0D6
S1130860FADC61E08CE053DD88E292E0E5DC61E0F3
S11308708EE04DDD8B8162E070E090E0ECDC61E0C5
S113088080E045DD8BE292E0D7DC61E083E03FDD90
S11308908C8162E070E090E0DEDC80910A028130BD
S11308A019F4B5B860E06EDC1092770293CFF09241
S11308B07102E092700210926B0210926A0220E0C0
S11308C030E034C080916C0290916D02892B29F440
S11308D0F60180818064808325C04091720250912A
S11308E0730280917002909171024817590758F46D
S11308F080917202909173029093710280937002BE
S113090020E030E002C02F5F3F4F10926D02109242
S11309106C0280916A0290916B02019690936B0233
S113092080936A02243FF1E03F0711F04899CACF4F
S113093080916A0290916B021816190694F58091C1
S1130940700290917102833A934098F480917002FE
S1130950909171028D3B924070F48091700290915D
S113096071028D32914048F40F2EF3E08F2EF02D5A
S113097006C0812C04C0892C02C0882483948DE78E
S113098092E0D4DCE0917D02F0917E0280824DE71A
S113099052E064E772E089E792E0D6DC8C818F5FF5
S11309A08C831092770216CF1092770285B18F60F4
S11309B085B98AEF90E0FCDC4FE752E064E772E02F
S11309C089E792E0DFDC80917F0290918002FC0154
S11309D080808DD2811007C08C8181508C83888166
S11309E08F5F88831DC0F2E08F1207C08C81815015
S11309F08C838A818F5F8A8313C021E0821207C0AF
S1130A008C8181508C8389818F5F898309C083E0C5
S1130A10881206C08C8181508C838B818F5F8B837D
S1130A2020917802821649F1E82DF0E030E0C90106
S1130A30019683709078992324F401978C6F9F6FAB
S1130A400196E817F90721F402DE8092780215C0B6
S1130A50C9010296B8018CD1E817F90721F402DE26
S1130A60809278020AC0C9010396B80181D1E817BF
S1130A70F90719F4E1DD80927802B5B88091680233
S1130A8090916902019709F0A5CE8C818111A2CEC3
S1130A9088E893E18DDC85B18F6085B960E081E001
S1130AA071DB60E080E033DC8FE292E0C5DB61E083
S1130AB080E02DDC86E392E0BFDB60E087E027DCAA
S1130AC08CE292E0B9DB60E089E021DCC2E6D2E0AE
S1130AD0888162E070E090E0BEDB60E08CE017DCCF
S1130AE082E292E0A9DB60E08EE011DC898162E0C1
S1130AF070E090E0B0DB61E087E009DC85E292E041
S1130B009BDB61E089E003DC8A8162E070E090E0D5
S1130B10A2DB61E08CE0FBDB88E292E08DDB61E04C
S1130B208EE0F5DB8B8162E070E090E094DB80E0A6
S1130B3090E0DF91CF911F910F91FF90EF90DF90A4
S1130B40CF90BF90AF909F908F9008951F920F9277
S1130B500FB60F9211242F933F938F939F938091FD
S1130B60780090E0909373028093720290917900E0
S1130B702091720230917302892F90E0982F882778
S1130B80820F931F909373028093720281E090E02E
S1130B9090936D0280936C029F918F913F912F915E
S1130BA00F900FBE0F901F9018951F920F920FB6C3
S1130BB00F9211248F93489B03C081E080937702A6
S1130BC08F910F900FBE0F901F9018951F920F9248
S1130BD00FB60F9211248F93499903C082E080933A
S1130BE077028F910F900FBE0F901F9018951F9250
S1130BF00F920FB60F9211240BB60F928F939F93FF
S1130C00AF93BF93EF93FF9380916702811123C049
S1130C10109269021092680281E080936702E1E910
S1130C20F0E01082109290001082109295001092C1
S1130C3094008FE995E19093990080939800C19A6C
S1130C40A1E7B0E08C9182608C938081886080837E
S1130C50808185608083FF91EF91BF91AF919F91D7
S1130C608F910F900BBE0F900FBE0F901F90189591
S1130C701F920F920FB60F9211248F939F9310928D
S1130C8091001092670281E090E090936902809352
S1130C9068029F918F910F900FBE0F901F9018952F
S1130CA01F920F920FB60F9211240BB60F922F932F
S1130CB03F934F935F936F937F938F939F93AF93E0
S1130CC0BF93EF93FF934B9B11C08AEF90E070DBCF
S1130CD090910A0281E0892780930A0283E080933D
S1130CE077024B99FECF8AEF90E062DBFF91EF91A0
S1130CF0BF91AF919F918F917F916F915F914F9130
S1130D003F912F910F900BBE0F900FBE0F901F902D
S1130D1018951F920F920FB60F9211240BB60F92D3
S1130D202F933F934F935F936F937F938F939F93EF
S1130D30AF93BF93EF93FF9360E081E023DA8DE3F9
S1130D4092E07ADA80E395E733DBFF91EF91BF918C
S1130D50AF919F918F917F916F915F914F913F914F
S1130D602F910F900BBE0F900FBE0F901F901895F0
S1130D7097FB072E16F4009406D077FD08D00BD00D
S1130D8007FC05D03EF4909581959F4F089570958A
S1130D9061957F4F0895AA1BBB1B51E107C0AA1F91
S1130DA0BB1FA617B70710F0A61BB70B881F991F08
S1130DB05A95A9F780959095BC01CD0108950F939C
S1130DC01F93CF93DF938230910510F482E090E07B
S1130DD0E0918302F091840220E030E0A0E0B0E0F2
S1130DE0309719F1408151810281138148175907C5
S1130DF0C8F08417950769F4109731F012960C9394
S1130E00129713961C9327C00093830210938402B5
S1130E1022C02115310519F04217530718F49A011D
S1130E20BD01EF01DF01F801DBCF21153105F9F038
S1130E30281B390B2430310580F48A819B8161158C
S1130E40710521F0FB019383828304C09093840293
S1130E5080938302FE01329644C0FE01E20FF31F29
S1130E608193919322503109398328833AC0209188
S1130E70810230918202232B41F4209102023091AD
S1130E800302309382022093810220910002309168
S1130E9001022115310541F42DB73EB740910402FA
S1130EA050910502241B350BE0918102F0918202DE
S1130EB0E217F307A0F42E1B3F0B2817390778F02D
S1130EC0AC014E5F5F4F2417350748F04E0F5F1F8C
S1130ED050938202409381028193919302C0E0E097
S1130EE0F0E0CF01DF91CF911F910F910895CF933F
S1130EF0DF93009709F481C0FC01329713821282B8
S1130F00A0918302B0918402109781F420813181F1
S1130F10820F931F20918102309182022817390792
S1130F2051F5F0938202E093810267C0ED0120E065
S1130F3030E0CE17DF0740F44A815B819E01411502
S1130F405105F1F0EA01F5CFD383C2834081518189
S1130F50840F951FC817D90759F488819981840F84
S1130F60951F0296918380838A819B8193838283D8
S1130F702115310529F4F0938402E09383023DC0E6
S1130F80E901FB83EA8349915991C40FD51FEC17FA
S1130F90FD0761F480819181840F951F0296E90118
S1130FA099838883828193819B838A83E0E0F0E044
S1130FB012968D919C911397009719F0FD01DC0115
S1130FC0F7CF8D919C9111979D012E5F3F4F820F1A
S1130FD0931F20918102309182022817390769F406
S1130FE0309729F4109284021092830202C0138273
S1130FF01282B0938202A0938102DF91CF9108956F
S1071000F894FFCF8E
S1131004000085022000320030000143435720557C
S1131014700043435720446F776E00504155534545
S11310244400533A00573A00413A0042423A0052CB
S1131034616D70656400446F776E3A2900495352B8
S113104420424144007878777674726F6C686460E7
S11310545C5854504C4844403C3834302C28362E88
S10510642D3524
S9030000FC
