S00D00004C616234612E7372656373
S113000071C000008EC000008CC000008AC00000D7
S113001088C0000086C0000084C0000082C00000C8
S113002080C000007EC000007CC000007AC00000D8
S113003078C0000076C0000074C0000072C00000E8
S113004070C000006EC000006CC000006AC00000F8
S113005068C0000066C0000064C0000062C0000008
S113006060C000005EC000005CC000005AC0000018
S113007058C0000056C0000054C0000052C0000028
S113008050C000004EC000004CC000004AC0000038
S113009048C0000046C0000044C0000042C0000048
S11300A040C000003EC000003CC000003AC0000058
S11300B038C0000036C0000034C0000032C0000068
S11300C030C000002EC000002CC000002AC0000078
S11300D028C0000026C0000024C0000022C0000088
S11300E020C0000011241FBECFEFD1E2DEBFCDBF80
S11300F000E00CBF12E0A0E0B2E0EEECF2E000E0C1
S11301000BBF02C007900D92A430B107D9F722E0CB
S1130110A4E0B2E001C01D92A630B207E1F793D08B
S1130120D4C06ECFAC01E1E8F0E090819860908398
S113013088EE93E090938900809388001092850064
S113014010928400EFE6F0E090819260908320E0CA
S113015030E005C0B19BFECFB19A2F5F3F4F24170B
S113016035071CF4B19BF6CFF7CF08950F931F9377
S1130170CF93DF93181619063CF5EC0100E010E06C
S113018020910402309105022F5F3F4F3093050206
S1130190209304028091040290910502049724F0B4
S11301A01092050210920402E0910402F0910502FB
S11301B0E050FE4F808182B984E190E0B3DF0F5FAD
S11301C01F4FC017D107E1F6DF91CF911F910F9117
S11301D00895EF92FF920F931F93CF93DF93181616
S11301E0190654F5EC01E12CF12C03E010E0209108
S11301F00402309105022150310930930502209305
S113020004028091040290910502992324F410932E
S1130210050200930402E0910402F0910502E0500B
S1130220FE4F808182B984E190E07CDF8FEFE81A91
S1130230F80ACE15DF05D9F6DF91CF911F910F9102
S1130240FF90EF900895E1E6F0E090E8908381E07C
S11302508083E1E8F0E08081826080838FEF81B960
S113026084B984B5836884BDEEE6F0E08081826061
S1130270808385B5826085BD97BD8AE590E076DF91
S113028088EB9BE04FDF81E190E070DF80ED97E049
S113029049DF81E290E06ADF80ED97E043DF84E6A6
S11302A090E064DF80ED97E03DDF81E190E091DF55
S11302B080ED97E037DF81E290E08BDF80ED97E01F
S11102C031DF84E690E085DFFFCFF894FFCFB6
S10702CE30062805C5
S9030000FC
