:1000000071C0000079C0000077C0000075C000001A
:1000100073C0000071C000006FC000006DC0000020
:100020006BC0000069C0000067C0000065C0000030
:1000300063C0000061C000005FC000005DC0000040
:100040005BC0000059C0000057C0000055C0000050
:1000500053C0000051C000004FC000004DC0000060
:100060004BC0000049C0000047C0000045C0000070
:1000700043C0000041C000003FC000003DC0000080
:100080003BC0000039C0000037C0000035C0000090
:1000900033C0000031C000002FC000002DC00000A0
:1000A0002BC0000029C0000027C0000025C00000B0
:1000B00023C0000021C000001FC000001DC00000C0
:1000C0001BC0000019C0000017C0000015C00000D0
:1000D00013C0000011C000000FC000000DC00000E0
:1000E0000BC0000011241FBECFEFD1E2DEBFCDBF99
:1000F00000E00CBF28D083C083CFAC0118161906CE
:100100005CF420E030E081E0982F9A95F1F72F5FC2
:100110003F4F42175307C1F708950F931F93CF9393
:10012000DF931816190654F48C01C0E0D0E088EE75
:1001300093E0E3DF21960C171D07C9F7DF91CF91FC
:100140001F910F9108958FEF87B988B90F2EF0ECAA
:10015000BF2EF02D0F2EF0EEDF2EF02D0F2EF0EF34
:10016000EF2EF02D0F2EF8E7FF2EF02D0CE31EE101
:10017000DFE0C7E00F2EF3E0CF2EF02DB8B88AEF06
:1001800090E0CBDFD8B88AEF90E0C7DFE8B88AEF1D
:1001900090E0C3DFF8B88AEF90E0BFDF08B98AEFDC
:1001A00090E0BBDF18B98AEF90E0B7DFD8B98AEFEB
:1001B00090E0B3DFC8B98AEF90E0AFDFC8B88AEF4C
:1001C00090E0ABDFC8B98AEF90E0A7DFD8B98AEF3B
:1001D00090E0A3DF18B98AEF90E09FDF08B98AEFBB
:1001E00090E09BDFF8B88AEF90E097DFE8B88AEFFD
:1001F00090E093DFD8B88AEF90E08FDFBFCFF8941C
:02020000FFCF2E
:00000001FF
